:020000040000fa
:080000000001040000000000f3
:020000040000fa
:0400080012020000e0
:020000040000fa
:04000c0012020000dc
:020000040000fa
:0400100012020000d8
:020000040000fa
:0400140012020000d4
:020000040000fa
:0400180012020000d0
:020000040000fa
:04001c0012020000cc
:020000040000fa
:0400200012020000c8
:020000040000fa
:0400240012020000c4
:020000040000fa
:0400280012020000c0
:020000040000fa
:04002c0012020000bc
:020000040000fa
:0400300012020000b8
:020000040000fa
:0400340012020000b4
:020000040000fa
:0400380012020000b0
:020000040000fa
:04003c0012020000ac
:020000040000fa
:04004000cc010000ef
:020000040000fa
:04004400e2010000d5
:020000040000fa
:0400480012020000a0
:020000040000fa
:04004c00f8010000b7
:020000040000fa
:040050001202000098
:020000040000fa
:040054001202000094
:020000040000fa
:040058001202000090
:020000040000fa
:04005c00120200008c
:020000040000fa
:040060001202000088
:020000040000fa
:040064001202000084
:020000040000fa
:040068001202000080
:020000040000fa
:04006c00120200007c
:020000040000fa
:040070001202000078
:020000040000fa
:040074001202000074
:020000040000fa
:040078001202000070
:020000040000fa
:04007c00120200006c
:020000040000fa
:040080001202000068
:020000040000fa
:040084001202000064
:020000040000fa
:040088001202000060
:020000040000fa
:04008c00120200005c
:020000040000fa
:040090001202000058
:020000040000fa
:040094001202000054
:020000040000fa
:040098001202000050
:020000040000fa
:04009c00120200004c
:020000040000fa
:0400a0001202000048
:020000040000fa
:0400a4001202000044
:020000040000fa
:0400a8001202000040
:020000040000fa
:0400ac00120200003c
:020000040000fa
:0400b0001202000038
:020000040000fa
:0400b4001202000034
:020000040000fa
:0400b8001202000030
:020000040000fa
:0400bc00120200002c
:020000040000fa
:0400c0001202000028
:020000040000fa
:0400c4001202000024
:020000040000fa
:0400c8001202000020
:020000040000fa
:0400cc00120200001c
:020000040000fa
:0400d0001202000018
:020000040000fa
:0400d4001202000014
:020000040000fa
:0400d8001202000010
:020000040000fa
:0401080012020000df
:020000040000fa
:04010c0012020000db
:020000040000fa
:0401100012020000d7
:020000040000fa
:0401140012020000d3
:020000040000fa
:0401180012020000cf
:020000040000fa
:04011c0012020000cb
:020000040000fa
:0401200012020000c7
:020000040000fa
:0401240012020000c3
:020000040000fa
:0401280012020000bf
:020000040000fa
:04012c0012020000bb
:020000040000fa
:0401300012020000b7
:020000040000fa
:0401340012020000b3
:020000040000fa
:0401380012020000af
:020000040000fa
:04013c0012020000ab
:020000040000fa
:0401400012020000a7
:020000040000fa
:0401440012020000a3
:020000040000fa
:04014800120200009f
:020000040000fa
:04014c00120200009b
:020000040000fa
:040150001202000097
:020000040000fa
:040154001202000093
:020000040000fa
:04015800120200008f
:020000040000fa
:04015c00120200008b
:020000040000fa
:040160001202000087
:020000040000fa
:040164001202000083
:020000040000fa
:04016800120200007f
:020000040000fa
:04016c00120200007b
:020000040000fa
:040170001202000077
:020000040000fa
:040174001202000073
:020000040000fa
:04017800120200006f
:020000040000fa
:04017c00120200006b
:020000040000fa
:040180001202000067
:020000040000fa
:040184001202000063
:020000040000fa
:04018800120200005f
:020000040000fa
:04018c00120200005b
:020000040000fa
:040190001202000057
:020000040000fa
:040194001202000053
:020000040000fa
:04019800120200004f
:020000040000fa
:04019c00120200004b
:020000040000fa
:0401a0001202000047
:020000040000fa
:0401a4001202000043
:020000040000fa
:0401a800120200003f
:020000040000fa
:0401ac00120200003b
:020000040000fa
:0401b0001202000037
:020000040000fa
:0401b4001202000033
:020000040000fa
:0401b800120200002f
:020000040000fa
:0401bc00120200002b
:020000040000fa
:0401c0001202000027
:020000040000fa
:0401c4001202000023
:020000040000fa
:0401c800120200001f
:020000040000fa
:0401cc00120200001b
:020000040000fa
:0401d0001202000017
:020000040000fa
:0401d4001202000013
:020000040000fa
:0401d800120200000f
:020000040000fa
:10020000ef8020000eff20000e018800000000009b
:10021000000020000000e000020032000001200089
:100220002002880014000700800007000000e000a2
:1002300003003a00c06220000100200002003700e5
:100240000000200001002000810f7000010032003a
:1002500014000700000020000000e000020032004f
:1002600000000200000000002c0502000000000059
:100270000040da000000fe004440a900e000200039
:100280000000e0000300320000002000a001880010
:100290004440a800000006008a1f78008b1f7800e9
:1002a0000000060091018800800478000000eb0047
:1002b0001a003700e284440032a0b4009905ba0065
:1002c000e284440032a0b4009906ba00e2844400fb
:1002d00032a0b4000006eb00476fde00fd07b2005d
:1002e000636ce10003003a00ebff07000000eb0045
:1002f0000a003700606ce10004003a00005deb008a
:100300008b05e900fdff3e00040037006168e10055
:10031000010032000086eb000b00070019c7ba008d
:100320001905ba000e04e00003003a000a00e000dc
:10033000e0ff3a0000000600fe07b2009e018800c0
:100340008a047800f5ff3700395dba008b05e900b3
:100350000c003200295dba008b05e900080032006c
:100360000c00e00003003a00e284440032a0b40034
:10037000f5ff370019ddba008b05e900faff3a00f6
:100380008904e800e184440032a0b40000000600c3
:1003900000000000000000003400f800881f780012
:1003a00008002000a80188004f0478000000fa002f
:1003b0000621ef0084c0a9000080fa003400f90093
:1003c000004006003400f800881f78000800200074
:1003d000a80188004f0478000000fa000a21ef000d
:1003e00084e0a9000080fa003400f9000040060013
:1003f000801f78003400f80000002000a001880071
:100400000000fa008520a9009010800000407800cc
:1004100000e8b7000080fa003400f9004f007800cf
:10042000004006000040da000000fe000000050069
:020000040000fa
:1004300052610000646900002073000065720000d2
:0c044000696a0000736b0000610000009e
:020000040000fa
:10044c000000fa00309c2000600888004001200069
:10045c00000c8800803e2000100c880060002000fa
:10046c00200c880011e1a800104e2000000c880020
:10047c000080fa00000006000000fa00309c20000a
:10048c007008880040012000300c8800803e20005d
:10049c00400c8800e0002000500c880013e1a800fc
:1004ac00104e2000300c88000080fa00000006007e
:1004bc000200fa00000f78001e007800000c880083
:1004cc000080fa00000006000200fa00000f78001d
:1004dc001e007800300c88000080fa000000060036
:1004ec000000fa0070202000a01088000d42a90026
:1004fc008d20a80071108000c0ff2f0000806000cc
:10050c00701088000de2a8000f42a8000080fa00cd
:10051c00000006000000fa00881f78000004780034
:10052c0011003700612c2000184078000000fb00ff
:10053c000100010018407800ed4f500003003a0014
:10054c00612c2000a0002000010001001840780060
:10055c00ea4f500003003a00612c2000d00020002c
:10056c00010001000804e800184078000004e000d5
:10057c00ecff3a004f0478000080fa0000000600ff
:10058c000200fa00000f78000000000071108000db
:10059c0000102000008060000000e000fbff320033
:1005ac006010800066006000e60f500003003a0007
:1005bc009e0078008110880003003700f00f2000a7
:1005cc001e006000801088000080fa000000060009
:1005dc000000fa00d202a900d222a900c762a90029
:1005ec00c782a900de02a900de22a9000080fa0061
:1005fc00000006000000fa000000eb00b2ff07004c
:10060c00e202a800e222a900309c2000aeff070005
:10061c000080fa00000006000000fa000000eb0069
:10062c00a3ff0700cb62a800cb82a900309c20005e
:10063c009fff07000080fa00000006000000fa008f
:10064c000000eb009aff0700cb62a900cb82a80048
:10065c00309c200096ff07000080fa000000060086
:10066c000000fa000000eb0097ff0700e202a80070
:10067c00e222a900104e200093ff07000080fa0030
:10068c00000006000000fa000000eb008eff0700df
:10069c00e202a900e222a800104e20008aff070007
:1006ac000080fa00000006000000fa000000eb00d9
:1006bc007fff07000000eb0083ff0700cb62a9005f
:1006cc00cb82a900e202a900e222a9000080fa0074
:1006dc00000006000200fa000000eb00000f78009a
:1006ec0005003700608020001e00400001c3b300ed
:1006fc00014878001e0fe8001e007800e70f50003c
:10070c00f8ff34000080fa00000006000400fa0034
:10071c00204798000000eb00000f7800080037001d
:10072c009e00e8006080200000804000904078002f
:10073c00608020001e004000014878001e0fe80079
:10074c001e007800e50f5000f5ff34002e4090009d
:10075c000de8b7000080fa00000006001000fa0057
:10076c000000eb00000f78000000eb001007980071
:10077c000000eb00200798000000eb003007980009
:10078c000000eb00400798000000eb0050079800b9
:10079c000000eb00600798000000eb007007980069
:1007ac004d003700fe00900060802000008040006b
:1007bc009040780040c7b30080cf500002003a0050
:1007cc001e0fe80041003700fe0090006080200002
:1007dc00008040009040780060c6b30080cf50008d
:1007ec0004003a001e0090000000e800100798007a
:1007fc0036003700fe009000608020000080400032
:10080c009040780020c6b30080cf500004003a001e
:10081c002e0090000000e800200798002b00370005
:10082c00fe00900060802000008040009040780026
:10083c00c0c4b30080cf500004003a003e009000ca
:10084c000000e8003007980020003700fe00900000
:10085c0060802000008040009040780020c7b300ea
:10086c0080cf500004003a004e0090000000e800d9
:10087c004007980015003700fe00900060802000b3
:10088c00008040009040780030c7b30080cf50000b
:10089c0004003a005e0090000000e8005007980049
:1008ac000a003700fe0090006080200000804000ad
:1008bc009040780080c7b30080cf500003003a000e
:1008cc006e0090000000e800600798007e00900029
:1008dc000000e800700798007e009000e70f5000c1
:1008ec00b0ff34001e007800e20f5000020034000c
:1008fc0040c7b3001f0037001e009000e20f5000ed
:10090c000200340060c6b3001a0037002e009000bd
:10091c00e20f50000200340020c6b300150037006f
:10092c003e009000e20f500002003400c0c4b3003f
:10093c00100037004e009000e20f5000020034000f
:10094c0020c7b3000b0037005e009000e20f500090
:10095c000200340030c7b300060037006e00900070
:10096c00e20f50000200340080c7b30001003700d2
:10097c0000c3b3000080fa00000006000000fa007b
:10098c00c162a900c702a900dec2a900a902a80081
:10099c000080fa00000006000000fa00201680001b
:1009ac004b00de006140600000c0ea006140600066
:1009bc000080fb00610060004b00dd002116800010
:1009cc0001b0a10001007000201688000080fa0020
:1009dc00000006000000fa00501680004800de00ff
:1009ec006140600000c0ea00614060000080fb00d4
:1009fc00610060004800dd00511680000180a100fc
:100a0c0001007000501688000080fa0000000600fb
:100a1c000000fa00101780004600de006140600004
:100a2c0000c0ea00614060000080fb0061006000d3
:100a3c004600dd00111780000160a100010070006c
:100a4c00101788000080fa00000006000400fa006d
:100a5c000228ef0003003700104080000000e8007f
:100a6c001040880011408000f0702200808f5000f0
:100a7c00f9ff36009afe070040072000c0fe070071
:100a8c0014ff0700bdff0700d1fe07006cfe070036
:100a9c0079fe07000000eb0085fe07000000eb006c
:100aac0089fe070000ff0700a962a800a982a80020
:100abc0000c3b300204798000000eb00000f780043
:100acc008021280093fe070000c8bf000080fb00b7
:100adc00abfe07001e007800e30f500004003c0042
:100aec00d6fe0700e7fe07001e0fe80014003700d3
:100afc001e007800e90f500003003c00eafe0700de
:100b0c001e0fe8000e0037001e007800ed0f50009d
:100b1c0004003c00c0fe0700d1fe07001e0fe800d9
:100b2c0007003700e0fe07001e007800f30f5000ae
:100b3c00020034000000eb00000f78001e0fe800ec
:100b4c000428ef0003003700204080000000e8007c
:100b5c002040880021408000703e2000808f500093
:100b6c00f9ff3600d6ff37000000fa008cc0a90050
:100b7c0011e1a90084c0a9000080fa000000060061
:100b8c000200fa00000f780084c0a9001e00780053
:100b9c00004078006740600067406000674060007c
:100bac000080fb00670060004800dd00b20480009c
:100bbc00f18f2f008100610001007000b0048800eb
:100bcc009e007800688060004300de0000407800e2
:100bdc00614060000080fb00610060004600dd00a9
:100bec00610480000160a1000100700060048800b5
:100bfc000080fa00000006000400fa00000f7800e4
:100c0c00110798000621ef009e00900061088800f3
:100c1c009e007800810888001061a9000080fa000d
:100c2c00000006000000fa00300880000080fa0086
:100c3c00000006000200fa00000f78009e00780009
:0c0c4c00310888000080fa00000006005b
:020000040000fa
:100c5800000800000e000000000000000000000076
:020000040000fa
:0200000401f009
:040000000587000070
:020000040000fa
:0200000401f009
:040004003f000000b9
:00000001FF
