:020000040000fa
:080000000001040000000000f3
:020000040000fa
:040008008e02000064
:020000040000fa
:04000c008e02000060
:020000040000fa
:040010008e0200005c
:020000040000fa
:040014008e02000058
:020000040000fa
:040018008e02000054
:020000040000fa
:04001c008e02000050
:020000040000fa
:040020008e0200004c
:020000040000fa
:040024008e02000048
:020000040000fa
:040028008e02000044
:020000040000fa
:04002c008e02000040
:020000040000fa
:040030008e0200003c
:020000040000fa
:04003400c8010000ff
:020000040000fa
:040038008e02000034
:020000040000fa
:04003c008e02000030
:020000040000fa
:04004000e2010000d9
:020000040000fa
:04004400f8010000bf
:020000040000fa
:040048008e02000024
:020000040000fa
:04004c005a02000054
:020000040000fa
:040050008e0200001c
:020000040000fa
:040054008e02000018
:020000040000fa
:040058008e02000014
:020000040000fa
:04005c008e02000010
:020000040000fa
:040060008e0200000c
:020000040000fa
:040064008e02000008
:020000040000fa
:040068008e02000004
:020000040000fa
:04006c008e02000000
:020000040000fa
:040070008e020000fc
:020000040000fa
:040074008e020000f8
:020000040000fa
:040078008e020000f4
:020000040000fa
:04007c000e02000070
:020000040000fa
:040080004402000036
:020000040000fa
:040084008e020000e8
:020000040000fa
:0400880074020000fe
:020000040000fa
:04008c008e020000e0
:020000040000fa
:040090008e020000dc
:020000040000fa
:040094008e020000d8
:020000040000fa
:040098008e020000d4
:020000040000fa
:04009c008e020000d0
:020000040000fa
:0400a0008e020000cc
:020000040000fa
:0400a4008e020000c8
:020000040000fa
:0400a8008e020000c4
:020000040000fa
:0400ac008e020000c0
:020000040000fa
:0400b0008e020000bc
:020000040000fa
:0400b4008e020000b8
:020000040000fa
:0400b8008e020000b4
:020000040000fa
:0400bc008e020000b0
:020000040000fa
:0400c0008e020000ac
:020000040000fa
:0400c4008e020000a8
:020000040000fa
:0400c8008e020000a4
:020000040000fa
:0400cc008e020000a0
:020000040000fa
:0400d0008e0200009c
:020000040000fa
:0400d4008e02000098
:020000040000fa
:0400d8008e02000094
:020000040000fa
:040108008e02000063
:020000040000fa
:04010c008e0200005f
:020000040000fa
:040110008e0200005b
:020000040000fa
:040114008e02000057
:020000040000fa
:040118008e02000053
:020000040000fa
:04011c008e0200004f
:020000040000fa
:040120008e0200004b
:020000040000fa
:040124008e02000047
:020000040000fa
:040128008e02000043
:020000040000fa
:04012c008e0200003f
:020000040000fa
:040130008e0200003b
:020000040000fa
:040134008e02000037
:020000040000fa
:040138008e02000033
:020000040000fa
:04013c008e0200002f
:020000040000fa
:040140008e0200002b
:020000040000fa
:040144008e02000027
:020000040000fa
:040148008e02000023
:020000040000fa
:04014c008e0200001f
:020000040000fa
:040150008e0200001b
:020000040000fa
:040154008e02000017
:020000040000fa
:040158008e02000013
:020000040000fa
:04015c008e0200000f
:020000040000fa
:040160008e0200000b
:020000040000fa
:040164008e02000007
:020000040000fa
:040168008e02000003
:020000040000fa
:04016c008e020000ff
:020000040000fa
:040170008e020000fb
:020000040000fa
:040174008e020000f7
:020000040000fa
:040178008e020000f3
:020000040000fa
:04017c008e020000ef
:020000040000fa
:040180008e020000eb
:020000040000fa
:040184008e020000e7
:020000040000fa
:040188008e020000e3
:020000040000fa
:04018c008e020000df
:020000040000fa
:040190008e020000db
:020000040000fa
:040194008e020000d7
:020000040000fa
:040198008e020000d3
:020000040000fa
:04019c008e020000cf
:020000040000fa
:0401a0008e020000cb
:020000040000fa
:0401a4008e020000c7
:020000040000fa
:0401a8008e020000c3
:020000040000fa
:0401ac008e020000bf
:020000040000fa
:0401b0008e020000bb
:020000040000fa
:0401b4008e020000b7
:020000040000fa
:0401b8008e020000b3
:020000040000fa
:0401bc008e020000af
:020000040000fa
:0401c0008e020000ab
:020000040000fa
:0401c4008e020000a7
:020000040000fa
:0401c8008e020000a3
:020000040000fa
:0401cc008e0200009f
:020000040000fa
:0401d0008e0200009b
:020000040000fa
:0401d4008e02000097
:020000040000fa
:0401d8008e02000093
:020000040000fa
:10020000cf8020000eff20000e01880000000000bb
:10021000000020000000e000020032000001200089
:100220002002880014000700be0007000000e00064
:1002300003003a008069200001002000020037001e
:100240000000200001002000810f7000010032003a
:1002500014000700000020000000e000020032004f
:10026000000002000000000048060200000000003c
:100270000040da000000fe004440a90020022000f7
:100280000000e0000300320000002000a001880010
:100290004440a800000006008a1f78008b1f7800e9
:1002a0000000060091018800800478000000eb0047
:1002b0001a003700e284440032a0b4009905ba0065
:1002c000e284440032a0b4009906ba00e2844400fb
:1002d00032a0b4000006eb00476fde00fd07b2005d
:1002e000636ce10003003a00ebff07000000eb0045
:1002f0000a003700606ce10004003a00005deb008a
:100300008b05e900fdff3e00040037006168e10055
:10031000010032000086eb000b00070019c7ba008d
:100320001905ba000e04e00003003a000a00e000dc
:10033000e0ff3a0000000600fe07b2009e018800c0
:100340008a047800f5ff3700395dba008b05e900b3
:100350000c003200295dba008b05e900080032006c
:100360000c00e00003003a00e284440032a0b40034
:10037000f5ff370019ddba008b05e900faff3a00f6
:100380008904e800e184440032a0b40000000600c3
:10039000801f78003400f80000002000a0018800d1
:1003a0000000fa000021ef008460a9001000200086
:1003b000504088000080fa003400f9004f007800b7
:1003c000004006003400f800881f78000800200074
:1003d000a80188004f0478000000fa000621ef0011
:1003e00084c0a9000080fa003400f9000040060033
:1003f0003400f800881f780008002000a801880059
:100400004f0478000000fa000a21ef0084e0a90000
:100410000080fa003400f90000400600809fbe0012
:100420003400f80000002000a00188000000fa005d
:100430001421ef00304080000000e80030408800c8
:100440003140800000d02700808f500001003a002a
:100450000628ef00404080000000e800404088008f
:100460004140800000d02700808f500001003a00fa
:100470000828ef0086a0a9000080fa003400f900e7
:100480004f00be00004006003400f800881f7800ce
:1004900008002000a80188004f0478000000fa003e
:1004a0001821ef0086c0a9000080fa003400f9008e
:1004b00000400600801f78003400f8000000200093
:1004c000a00188000000fa008520a900901080009b
:1004d0000040780000e8b7000080fa003400f9001e
:1004e0004f00780000400600801f78003400f800bc
:1004f00000002000a00188000000fa008700a90089
:10050000e01080000040780001e8b7000080fa00a9
:100510003400f9004f007800004006000040da0087
:080520000000fe0000000500d0
:020000040000fa
:100528007374000061720000742000000050000025
:10053800726f0000736100006f20000054340000e7
:1005480020000000526100007a640000616c000025
:100558006a6900006e6100003a2000000063000034
:040568006d00000022
:020000040000fa
:10056c000000fa0070202000a01088000d42a900a5
:10057c008d20a80071108000c0ff2f00008060004b
:10058c00701088000de2a8000f42a8000080fa004d
:10059c00000006000200fa00000f780000000000c6
:1005ac007110800000102000008060000000e0004e
:1005bc00fbff32006010800066006000e60f500008
:1005cc0003003a009e007800811088000300370079
:1005dc00f00f20001e006000801088000080fa00e0
:1005ec00000006000400fa00100798001e0090009e
:1005fc00c300de00500c22000008b8004408de00e6
:10060c00004f78001e80fb000003b000e1ff0700e4
:10061c009e80fb0080c12f000088b900000078008c
:10062c009e00900000804000100798001e00900073
:10063c00c200de00b04721000008b8000100d10064
:10064c00004f78001e80fb000003b000d1ff0700b4
:10065c009e80fb00c0f92f000088b90000007800d4
:10066c009e00900000804000100798009e009000b3
:10067c00d0cc2c000008b8004308de00004f7800f6
:10068c001e80fb000003b000c2ff07009e80fb0031
:10069c0060ff2f000088b900000078009e009000d9
:1006ac0000804000100798001e0090000003b0006e
:1006bc00b8ff07000080fa00000006000000fa00f6
:1006cc00881f780000047800040037001840780078
:1006dc000000fb000804e800aeff0700184078009b
:1006ec000004e000f9ff3a004f0478000080fa00a3
:1006fc00000006000000fa0070202000f0108800b6
:10070c00c1108000c0ff2f0000806000c010880066
:10071c008f00a80017e2a8001942a8000080fa0078
:10072c00000006000200fa00000f78009e0078001e
:10073c00d110880000000000c110800000102000c3
:10074c00008060000000e000fbff32000080fa0037
:10075c00000006000400fa00100798001e0090002c
:10076c00c300de00500c22000008b8004408de0074
:10077c00004f78001e80fb000003b000e9ff07006b
:10078c009e80fb0080c12f000088b900000078001b
:10079c009e00900000804000100798001e00900002
:1007ac00c200de00b04721000008b8000100d100f3
:1007bc00004f78001e80fb000003b000d9ff07003b
:1007cc009e80fb00c0f92f000088b9000000780063
:1007dc009e00900000804000100798009e00900042
:1007ec00d0cc2c000008b8004308de00004f780085
:1007fc001e80fb000003b000caff07009e80fb00b8
:10080c0060ff2f000088b900000078009e00900067
:10081c0000804000100798001e0090000003b000fc
:10082c00c0ff07000080fa00000006000200fa007a
:10083c00000f7800050037001e007800104078008b
:10084c000000fb001e0fe800b6ff07001e0078003a
:10085c00104078000004e000f7ff3a000080fa0036
:10086c00000006000000fa00309c200060088800a0
:10087c0040012000000c8800803e2000100c8800f5
:10088c0060002000200c880011e1a800104e200010
:10089c00000c88000080fa00000006000000fa003e
:1008ac00309c20007008880040012000300c88002b
:1008bc00803e2000400c8800e0002000500c880096
:1008cc0013e1a800104e2000300c88000080fa00c4
:1008dc00000006000200fa00000f78001e007800ed
:1008ec00000c88000080fa00000006000200fa00ec
:1008fc00000f78001e007800300c88000080fa0091
:10090c00000006000000fa00a962a800a982a80055
:10091c00d202a900d222a900c762a900c782a900ed
:10092c00de02a900de22a9000080fa000000060009
:10093c000000fa000000eb00ecff0700e202a80048
:10094c00e222a900309c2000e8ff07000080fa009a
:10095c00000006000000fa000000eb00ddff0700bd
:10096c00cb62a800cb82a900309c2000d9ff0700e5
:10097c000080fa00000006000000fa000000eb0006
:10098c00d4ff0700cb62a900cb82a800309c2000ca
:10099c00d0ff07000080fa00000006000000fa00fb
:1009ac000000eb00d1ff0700e202a800e222a90040
:1009bc00104e2000cdff07000080fa00000006005a
:1009cc000000fa000000eb00c8ff0700e202a900db
:1009dc00e222a800104e2000c4ff07000080fa009d
:1009ec00000006000000fa000000eb00b9ff070051
:1009fc000000eb00bdff0700cb62a900cb82a90071
:100a0c00e202a900e222a9000080fa000000060020
:100a1c000000fa000021ef004006200010088800ba
:100a2c000a28ef000421a9008460a9008c60a800aa
:100a3c0005e1a9000080fa00000006000200fa009f
:100a4c00000f78001e007800160007000800070051
:100a5c000c00070000000000504080000000e00087
:100a6c00fdff32000b0007000080fa0000000600ba
:100a7c000000fa000a28ef000021ef000080fa00c5
:100a8c00000006000000fa0005e1a8000080fa0052
:100a9c00000006000000fa0005e1a9000080fa0041
:100aac00000006000200fa00000f78009e0078009b
:100abc00400620000088b90000007800100888006b
:100acc000080fa00000006000000fa000080eb0035
:100adc00f4ff0700e6ff0700eaff07000080fa00ba
:100aec00000006000200fa00eaff0700010880007f
:100afc00010f7800deff07001e0078000080fa006e
:100b0c00000006000000fa001fe1a9001421ef000c
:100b1c000628ef0000712200d00888001e21a900d1
:100b2c0086a0a9008ea0a8001fe1a8000080fa00f2
:100b3c00000006000200fa00000f78000800070011
:100b4c000828ef00000000009e0078004040800064
:100b5c00808f5000fcff3e000080fa000000060071
:100b6c000000fa001421ef000628ef000080fa00c4
:100b7c00000006000000fa00304080000080fa00ff
:100b8c00000006000000fa00a802a800a822a80095
:100b9c00c602a900c622a800ca02a9000080fa0059
:100bac00000006000000fa00a842a800a862a800f5
:100bbc00c642a900c662a800ca42a9000080fa0079
:100bcc00000006000000fa00c0032000d9ff070057
:100bdc00ca02a800a000200098ff0700ca02a900c2
:100bec000000000040168000620060000000e00081
:100bfc00fcff3200b4ff070000000000401680002c
:100c0c00620060000000e000fcff3a00b5ff070046
:100c1c00f16924000100b8004408de000080fa00ed
:100c2c00000006000000fa00c0032000c1ff07000e
:100c3c00ca02a800a000200080ff0700ca02a90079
:100c4c000000000040168000620060000000e00020
:100c5c00fcff32009cff07000000000040168000e3
:100c6c00620060000000e000fcff3a009dff0700fe
:100c7c00f16924000100b8004408de000080fa008d
:100c8c00000006000000fa000228ef000300370005
:100c9c00104080000000e8001040880011408000e7
:100cac00f0702200808f5000f9ff36002cfe0700f8
:100cbc0090fe07004029280080fe070011ff070066
:100ccc00e8fe0700f5fe07000000eb0001ff07003f
:100cdc000000eb0005ff070042ff070089ff07003b
:100cec00b029280075fe070049ff0700a5ff070083
:100cfc00acff0700602a280070fe0700b1ff070058
:100d0c0038fe0700302b28006cfe070000c8bf001f
:100d1c000080fb001ffe0700803e200085ff0700bf
:040d2c00f4ff370099
:020000040000fa
:100d3000000800000c00000000000000000000009f
:020000040000fa
:0200000401f009
:040000000587000070
:020000040000fa
:0200000401f009
:040004003f000000b9
:00000001FF
