:020000040000fa
:080000000001040000000000f3
:020000040000fa
:040008008e02000064
:020000040000fa
:04000c008e02000060
:020000040000fa
:040010008e0200005c
:020000040000fa
:040014008e02000058
:020000040000fa
:040018008e02000054
:020000040000fa
:04001c008e02000050
:020000040000fa
:040020008e0200004c
:020000040000fa
:040024008e02000048
:020000040000fa
:040028008e02000044
:020000040000fa
:04002c008e02000040
:020000040000fa
:040030008e0200003c
:020000040000fa
:04003400c8010000ff
:020000040000fa
:040038008e02000034
:020000040000fa
:04003c008e02000030
:020000040000fa
:04004000e2010000d9
:020000040000fa
:04004400f8010000bf
:020000040000fa
:040048008e02000024
:020000040000fa
:04004c005a02000054
:020000040000fa
:040050008e0200001c
:020000040000fa
:040054008e02000018
:020000040000fa
:040058008e02000014
:020000040000fa
:04005c008e02000010
:020000040000fa
:040060008e0200000c
:020000040000fa
:040064008e02000008
:020000040000fa
:040068008e02000004
:020000040000fa
:04006c008e02000000
:020000040000fa
:040070008e020000fc
:020000040000fa
:040074008e020000f8
:020000040000fa
:040078008e020000f4
:020000040000fa
:04007c000e02000070
:020000040000fa
:040080004402000036
:020000040000fa
:040084008e020000e8
:020000040000fa
:0400880074020000fe
:020000040000fa
:04008c008e020000e0
:020000040000fa
:040090008e020000dc
:020000040000fa
:040094008e020000d8
:020000040000fa
:040098008e020000d4
:020000040000fa
:04009c008e020000d0
:020000040000fa
:0400a0008e020000cc
:020000040000fa
:0400a4008e020000c8
:020000040000fa
:0400a8008e020000c4
:020000040000fa
:0400ac008e020000c0
:020000040000fa
:0400b0008e020000bc
:020000040000fa
:0400b4008e020000b8
:020000040000fa
:0400b8008e020000b4
:020000040000fa
:0400bc008e020000b0
:020000040000fa
:0400c0008e020000ac
:020000040000fa
:0400c4008e020000a8
:020000040000fa
:0400c8008e020000a4
:020000040000fa
:0400cc008e020000a0
:020000040000fa
:0400d0008e0200009c
:020000040000fa
:0400d4008e02000098
:020000040000fa
:0400d8008e02000094
:020000040000fa
:040108008e02000063
:020000040000fa
:04010c008e0200005f
:020000040000fa
:040110008e0200005b
:020000040000fa
:040114008e02000057
:020000040000fa
:040118008e02000053
:020000040000fa
:04011c008e0200004f
:020000040000fa
:040120008e0200004b
:020000040000fa
:040124008e02000047
:020000040000fa
:040128008e02000043
:020000040000fa
:04012c008e0200003f
:020000040000fa
:040130008e0200003b
:020000040000fa
:040134008e02000037
:020000040000fa
:040138008e02000033
:020000040000fa
:04013c008e0200002f
:020000040000fa
:040140008e0200002b
:020000040000fa
:040144008e02000027
:020000040000fa
:040148008e02000023
:020000040000fa
:04014c008e0200001f
:020000040000fa
:040150008e0200001b
:020000040000fa
:040154008e02000017
:020000040000fa
:040158008e02000013
:020000040000fa
:04015c008e0200000f
:020000040000fa
:040160008e0200000b
:020000040000fa
:040164008e02000007
:020000040000fa
:040168008e02000003
:020000040000fa
:04016c008e020000ff
:020000040000fa
:040170008e020000fb
:020000040000fa
:040174008e020000f7
:020000040000fa
:040178008e020000f3
:020000040000fa
:04017c008e020000ef
:020000040000fa
:040180008e020000eb
:020000040000fa
:040184008e020000e7
:020000040000fa
:040188008e020000e3
:020000040000fa
:04018c008e020000df
:020000040000fa
:040190008e020000db
:020000040000fa
:040194008e020000d7
:020000040000fa
:040198008e020000d3
:020000040000fa
:04019c008e020000cf
:020000040000fa
:0401a0008e020000cb
:020000040000fa
:0401a4008e020000c7
:020000040000fa
:0401a8008e020000c3
:020000040000fa
:0401ac008e020000bf
:020000040000fa
:0401b0008e020000bb
:020000040000fa
:0401b4008e020000b7
:020000040000fa
:0401b8008e020000b3
:020000040000fa
:0401bc008e020000af
:020000040000fa
:0401c0008e020000ab
:020000040000fa
:0401c4008e020000a7
:020000040000fa
:0401c8008e020000a3
:020000040000fa
:0401cc008e0200009f
:020000040000fa
:0401d0008e0200009b
:020000040000fa
:0401d4008e02000097
:020000040000fa
:0401d8008e02000093
:020000040000fa
:10020000cf8020000eff20000e01880000000000bb
:10021000000020000000e000020032000001200089
:100220002002880014000700be0007000000e00064
:1002300003003a00c07e20000100200002003700c9
:100240000000200001002000810f7000010032003a
:1002500014000700000020000000e000020032004f
:1002600000000200000000009205020000000000f3
:100270000040da000000fe004440a90020032000f6
:100280000000e0000300320000002000a001880010
:100290004440a800000006008a1f78008b1f7800e9
:1002a0000000060091018800800478000000eb0047
:1002b0001a003700e284440032a0b4009905ba0065
:1002c000e284440032a0b4009906ba00e2844400fb
:1002d00032a0b4000006eb00476fde00fd07b2005d
:1002e000636ce10003003a00ebff07000000eb0045
:1002f0000a003700606ce10004003a00005deb008a
:100300008b05e900fdff3e00040037006168e10055
:10031000010032000086eb000b00070019c7ba008d
:100320001905ba000e04e00003003a000a00e000dc
:10033000e0ff3a0000000600fe07b2009e018800c0
:100340008a047800f5ff3700395dba008b05e900b3
:100350000c003200295dba008b05e900080032006c
:100360000c00e00003003a00e284440032a0b40034
:10037000f5ff370019ddba008b05e900faff3a00f6
:100380008904e800e184440032a0b40000000600c3
:10039000801f78003400f80000002000a0018800d1
:1003a0000000fa000021ef008460a9001000200086
:1003b000504088000080fa003400f9004f007800b7
:1003c000004006003400f800881f78000800200074
:1003d000a80188004f0478000000fa000621ef0011
:1003e00084c0a9000080fa003400f9000040060033
:1003f0003400f800881f780008002000a801880059
:100400004f0478000000fa000a21ef0084e0a90000
:100410000080fa003400f90000400600809fbe0012
:100420003400f80000002000a00188000000fa005d
:100430001421ef00304080000000e80030408800c8
:100440003140800000d02700808f500001003a002a
:100450000628ef00404080000000e800404088008f
:100460004140800000d02700808f500001003a00fa
:100470000828ef0086a0a9000080fa003400f900e7
:100480004f00be00004006003400f800881f7800ce
:1004900008002000a80188004f0478000000fa003e
:1004a0001821ef0086c0a9000080fa003400f9008e
:1004b00000400600801f78003400f8000000200093
:1004c000a00188000000fa008520a900901080009b
:1004d0000040780000e8b7000080fa003400f9001e
:1004e0004f00780000400600801f78003400f800bc
:1004f00000002000a00188000000fa008700a90089
:10050000e01080000040780001e8b7000080fa00a9
:100510003400f9004f007800004006000040da0087
:080520000000fe0000000500d0
:020000040000fa
:10052800737400006172000074200000004c000029
:10053800455600004f3a0000006d00006d2e000087
:100548002000000062610000636b00002e200000a4
:10055800006c000065660000742e0000200000009a
:10056800666f00007277000061720000642e000060
:10057800200000007269000067680000742e000007
:04058800200000004f
:020000040000fa
:10058c000000fa0000042000a01088000d42a90011
:10059c008d20a80071108000c0ff2f00008060002b
:1005ac00701088000de2a8000f42a8000080fa002d
:1005bc00000006000200fa00000f780000000000a6
:1005cc007110800000102000008060000000e0002e
:1005dc00fbff32006010800066006000e60f5000e8
:1005ec0003003a009e007800811088000300370059
:1005fc00f00f20001e006000801088000080fa00c0
:10060c00000006000400fa00100798001e0090007d
:10061c00c300de00500c22000008b8004408de00c5
:10062c00004f78001e80fb000003b000e1ff0700c4
:10063c009e80fb0080c12f000088b900000078006c
:10064c009e00900000804000100798001e00900053
:10065c00c200de00b04721000008b8000100d10044
:10066c00004f78001e80fb000003b000d1ff070094
:10067c009e80fb00c0f92f000088b90000007800b4
:10068c009e00900000804000100798009e00900093
:10069c00d0cc2c000008b8004308de00004f7800d6
:1006ac001e80fb000003b000c2ff07009e80fb0011
:1006bc0060ff2f000088b900000078009e009000b9
:1006cc0000804000100798001e0090000003b0004e
:1006dc00b8ff07000080fa00000006000000fa00d6
:1006ec00881f780000047800040037001840780058
:1006fc000000fb000804e800aeff0700184078007b
:10070c000004e000f9ff3a004f0478000080fa0082
:10071c00000006000000fa0070202000f010880095
:10072c00c1108000c0ff2f0000806000c010880046
:10073c008f00a80017e2a8001942a8000080fa0058
:10074c00000006000200fa00000f78009e007800fe
:10075c00d110880000000000c110800000102000a3
:10076c00008060000000e000fbff32000080fa0017
:10077c00000006000400fa00100798001e0090000c
:10078c00c300de00500c22000008b8004408de0054
:10079c00004f78001e80fb000003b000e9ff07004b
:1007ac009e80fb0080c12f000088b90000007800fb
:1007bc009e00900000804000100798001e009000e2
:1007cc00c200de00b04721000008b8000100d100d3
:1007dc00004f78001e80fb000003b000d9ff07001b
:1007ec009e80fb00c0f92f000088b9000000780043
:1007fc009e00900000804000100798009e00900022
:10080c00d0cc2c000008b8004308de00004f780064
:10081c001e80fb000003b000caff07009e80fb0097
:10082c0060ff2f000088b900000078009e00900047
:10083c0000804000100798001e0090000003b000dc
:10084c00c0ff07000080fa00000006000200fa005a
:10085c00000f7800050037001e007800104078006b
:10086c000000fb001e0fe800b6ff07001e0078001a
:10087c00104078000004e000f7ff3a000080fa0016
:10088c00000006000000fa00309c20006008880080
:10089c0040012000000c8800803e2000100c8800d5
:1008ac0060002000200c880011e1a800104e2000f0
:1008bc00000c88000080fa00000006000000fa001e
:1008cc00309c20007008880040012000300c88000b
:1008dc00803e2000400c8800e0002000500c880076
:1008ec0013e1a800104e2000300c88000080fa00a4
:1008fc00000006000200fa00000f78001e007800cd
:10090c00000c88000080fa00000006000200fa00cb
:10091c00000f78001e007800300c88000080fa0070
:10092c00000006000000fa00a962a800a982a80035
:10093c00d202a900d222a900c762a900c782a900cd
:10094c00de02a900de22a9000080fa0000000600e9
:10095c000000fa0010178000610060000000e00049
:10096c000400320010178000620060000000e000fc
:10097c00060032000000eb00e4ff0700e202a800d2
:10098c00e222a900309c2000e0ff07000080fa0062
:10099c00000006000000fa005116800000802000c4
:1009ac00008060000000e00005003200511680005d
:1009bc0000002100008060000000e0000600320012
:1009cc000000eb00cbff0700cb62a800cb82a90094
:1009dc00309c2000c7ff07000080fa0000000600d2
:1009ec000000fa005116800000802000008060009a
:1009fc000000e00005003a005116800000002100c4
:100a0c00008060000000e00006003a000000eb00ef
:100a1c00b8ff0700cb62a900cb82a800309c200055
:100a2c00b4ff07000080fa00000006000000fa0086
:100a3c0010178000610060000000e000040032002c
:100a4c0010178000620060000000e0000600320019
:100a5c000000eb00adff0700e202a800e222a900b3
:100a6c0080892000a9ff07000080fa000000060022
:100a7c000000fa0010178000610060000000e00028
:100a8c0004003a0010178000620060000000e000d3
:100a9c0006003a000000eb009cff0700e202a900f0
:100aac00e222a8008089200098ff07000080fa004d
:100abc00000006000000fa000000eb008dff0700ac
:100acc00cb62a900cb82a9000080fa0000000600ce
:100adc000000fa000000eb0086ff0700cb62a900c3
:100aec00cb82a9000080fa00000006000000fa008a
:100afc000000eb007fff07000000eb0083ff070006
:100b0c00cb62a900cb82a900e202a900e222a900d3
:100b1c000080fa00000006000400fa000228ef0032
:100b2c0003003700104080000000e80010408800ef
:100b3c0011408000f0702200808f5000f9ff3600c9
:100b4c008ffe0700f3fe070040292800e3fe070094
:100b5c0074ff07004bff070058ff07000000eb0075
:100b6c0064ff07000000eb0068ff0700dfff0700d1
:100b7c00a100070063000700c5000700cc000700b8
:100b8c000000eb00000f78000000eb00100798004d
:100b9c00cf000700000f7800e50007001007980051
:100bac00b0292800cdfe07001e00900095fe07001e
:100bbc00102a2800c9fe0700200320009e007800a0
:100bcc00808f50000b003600800c20009e007800b7
:100bdc00808f500007003e00602a2800bffe0700ef
:100bec007fff070091ff0700c0122000960007004e
:100bfc00130037009e00780000192000e400070065
:100c0c000000e0000e0032009e009000c012200098
:100c1c00df0007000000e00009003200d02a2800a5
:100c2c00aefe07006eff070091ff0700800c20004e
:100c3c00850007009fff0700c012200082000700fc
:100c4c009e00780000192000d10007000000e00091
:100c5c000f0032009e00900060092000808f500031
:100c6c000b0036009e009000c0122000808f5000b8
:100c7c0007003e00402b280098fe07008dff070060
:100c8c007bff0700c01220006f0007001600370022
:100c9c00600920009e007800808f50000400360010
:100cac00f01820009e007800808f5000080036005d
:100cbc009e00900020032000808f50000a00360018
:100ccc009e00900060092000808f500006003e00be
:100cdc00e02b280081fe070065ff07002dff0700b1
:100cec00c01220005800070080ff070000c8bf009a
:100cfc000080fb002ffe0700c012200052000700ee
:100d0c00a3ff37000000fa000021ef00400620008e
:100d1c00100888000a28ef000421a9008460a900ab
:100d2c008c60a80005e1a9000080fa000000060014
:100d3c000200fa00000f78001e0078001600070071
:100d4c00080007000c000700000000005040800065
:100d5c000000e000fdff32000b0007000080fa00ed
:100d6c00000006000000fa000a28ef000021ef0046
:100d7c000080fa00000006000000fa0005e1a8005f
:100d8c000080fa00000006000000fa0005e1a9004e
:100d9c000080fa00000006000200fa00000f780044
:100dac009e007800400620000088b9000000780002
:100dbc00100888000080fa00000006000000fa000d
:100dcc000080eb00f4ff0700e6ff0700eaff0700d6
:100ddc000080fa00000006000200fa00eaff07009b
:100dec0001088000010f7800deff07001e0078006c
:100dfc000080fa00000006000000fa001fe1a900c4
:100e0c001421ef000628ef0000712200d0088800a2
:100e1c001e21a90086a0a9008ea0a8001fe1a90090
:100e2c000080fa00000006000000fa001fe1a80094
:100e3c000080fa00000006000000fa001fe1a90083
:100e4c000080fa00000006000200fa00000f780093
:100e5c000a000700f4ff07000828ef00000000005c
:100e6c009e00780040408000808f5000fcff3e00c8
:100e7c00f1ff07000080fa00000006000000fa00f5
:100e8c001421ef000628ef000080fa000000060095
:100e9c000000fa00a802a800a822a800c602a90017
:100eac00c622a800ca02a9000080fa0000000600b1
:100ebc000000fa00a842a800a862a800c642a90037
:100ecc00c662a800ca42a9000080fa000000060011
:100edc000000fa00c0032000dbff0700ca02a800d4
:100eec00a000200092ff0700ca02a9000000000029
:100efc0040168000620060000000e000fcff320041
:100f0c00aeff070000000000401680006200600089
:100f1c000000e000fcff3a00afff0700f16924007d
:100f2c000100b8004408de000080fa000000060052
:100f3c000000fa00c0032000c3ff0700ca42a8004b
:100f4c00a00020007aff0700ca42a90000000000a0
:100f5c0040168000680060000000e000fcff3200da
:100f6c0096ff07000000000040168000680060003b
:100f7c000000e000fcff3a0097ff0700f169240035
:100f8c000100b8004408de000080fa0000000600f2
:100f9c000400fa00000f7800110798009e009000e2
:100fac0010032000808f5000030036001e009000bc
:100fbc009e0f500002003600100020000100370088
:0c0fcc000000eb000080fa0000000600ae
:020000040000fa
:100fd800000800000c0000000000000000000000f5
:020000040000fa
:0200000401f009
:040000000587000070
:020000040000fa
:0200000401f009
:040004003f000000b9
:00000001FF
