:020000040000fa
:080000000001040000000000f3
:020000040000fa
:04000800940200005e
:020000040000fa
:04000c00940200005a
:020000040000fa
:040010009402000056
:020000040000fa
:040014009402000052
:020000040000fa
:04001800940200004e
:020000040000fa
:04001c00940200004a
:020000040000fa
:040020009402000046
:020000040000fa
:040024009402000042
:020000040000fa
:04002800940200003e
:020000040000fa
:04002c00940200003a
:020000040000fa
:040030009402000036
:020000040000fa
:04003400c8010000ff
:020000040000fa
:04003800940200002e
:020000040000fa
:04003c00940200002a
:020000040000fa
:04004000e2010000d9
:020000040000fa
:04004400f8010000bf
:020000040000fa
:04004800940200001e
:020000040000fa
:04004c00600200004e
:020000040000fa
:040050009402000016
:020000040000fa
:040054009402000012
:020000040000fa
:04005800940200000e
:020000040000fa
:04005c00940200000a
:020000040000fa
:040060009402000006
:020000040000fa
:040064009402000002
:020000040000fa
:0400680094020000fe
:020000040000fa
:04006c0094020000fa
:020000040000fa
:0400700094020000f6
:020000040000fa
:0400740094020000f2
:020000040000fa
:0400780094020000ee
:020000040000fa
:04007c000e02000070
:020000040000fa
:040080004402000036
:020000040000fa
:0400840094020000e2
:020000040000fa
:040088007a020000f8
:020000040000fa
:04008c0094020000da
:020000040000fa
:0400900094020000d6
:020000040000fa
:0400940094020000d2
:020000040000fa
:0400980094020000ce
:020000040000fa
:04009c0094020000ca
:020000040000fa
:0400a00094020000c6
:020000040000fa
:0400a40094020000c2
:020000040000fa
:0400a80094020000be
:020000040000fa
:0400ac0094020000ba
:020000040000fa
:0400b00094020000b6
:020000040000fa
:0400b40094020000b2
:020000040000fa
:0400b80094020000ae
:020000040000fa
:0400bc0094020000aa
:020000040000fa
:0400c00094020000a6
:020000040000fa
:0400c40094020000a2
:020000040000fa
:0400c800940200009e
:020000040000fa
:0400cc00940200009a
:020000040000fa
:0400d0009402000096
:020000040000fa
:0400d4009402000092
:020000040000fa
:0400d800940200008e
:020000040000fa
:04010800940200005d
:020000040000fa
:04010c009402000059
:020000040000fa
:040110009402000055
:020000040000fa
:040114009402000051
:020000040000fa
:04011800940200004d
:020000040000fa
:04011c009402000049
:020000040000fa
:040120009402000045
:020000040000fa
:040124009402000041
:020000040000fa
:04012800940200003d
:020000040000fa
:04012c009402000039
:020000040000fa
:040130009402000035
:020000040000fa
:040134009402000031
:020000040000fa
:04013800940200002d
:020000040000fa
:04013c009402000029
:020000040000fa
:040140009402000025
:020000040000fa
:040144009402000021
:020000040000fa
:04014800940200001d
:020000040000fa
:04014c009402000019
:020000040000fa
:040150009402000015
:020000040000fa
:040154009402000011
:020000040000fa
:04015800940200000d
:020000040000fa
:04015c009402000009
:020000040000fa
:040160009402000005
:020000040000fa
:040164009402000001
:020000040000fa
:0401680094020000fd
:020000040000fa
:04016c0094020000f9
:020000040000fa
:0401700094020000f5
:020000040000fa
:0401740094020000f1
:020000040000fa
:0401780094020000ed
:020000040000fa
:04017c0094020000e9
:020000040000fa
:0401800094020000e5
:020000040000fa
:0401840094020000e1
:020000040000fa
:0401880094020000dd
:020000040000fa
:04018c0094020000d9
:020000040000fa
:0401900094020000d5
:020000040000fa
:0401940094020000d1
:020000040000fa
:0401980094020000cd
:020000040000fa
:04019c0094020000c9
:020000040000fa
:0401a00094020000c5
:020000040000fa
:0401a40094020000c1
:020000040000fa
:0401a80094020000bd
:020000040000fa
:0401ac0094020000b9
:020000040000fa
:0401b00094020000b5
:020000040000fa
:0401b40094020000b1
:020000040000fa
:0401b80094020000ad
:020000040000fa
:0401bc0094020000a9
:020000040000fa
:0401c00094020000a5
:020000040000fa
:0401c40094020000a1
:020000040000fa
:0401c800940200009d
:020000040000fa
:0401cc009402000099
:020000040000fa
:0401d0009402000095
:020000040000fa
:0401d4009402000091
:020000040000fa
:0401d800940200008d
:020000040000fa
:100200000f8920000eff20000e0188000000000072
:10021000000020000000e000020032000001200089
:100220002002880014000700030107000000e0001e
:1002300003003a0060562100010020000200370050
:100240000000200001002000810f7000010032003a
:1002500014000700000020000000e000020032004f
:1002600000000200000000005c0d02000000000021
:100270000040da000000fe004440a9008005200094
:100280000000e0000300320000002000a001880010
:100290004440a800000006008a1f78008b1f7800e9
:1002a0000000060091018800800478000000eb0047
:1002b0001a003700e284440032a0b4009905ba0065
:1002c000e284440032a0b4009906ba00e2844400fb
:1002d00032a0b4000006eb00476fde00fd07b2005d
:1002e000636ce10003003a00ebff07000000eb0045
:1002f0000a003700606ce10004003a00005deb008a
:100300008b05e900fdff3e00040037006168e10055
:10031000010032000086eb000b00070019c7ba008d
:100320001905ba000e04e00003003a000a00e000dc
:10033000e0ff3a0000000600fe07b2009e018800c0
:100340008a047800f5ff3700395dba008b05e900b3
:100350000c003200295dba008b05e900080032006c
:100360000c00e00003003a00e284440032a0b40034
:10037000f5ff370019ddba008b05e900faff3a00f6
:100380008904e800e184440032a0b40000000600c3
:10039000801f78003400f80000002000a0018800d1
:1003a0000000fa000021ef008460a9001000200086
:1003b000604088000080fa003400f9004f007800a7
:1003c000004006003400f800881f78000800200074
:1003d000a80188004f0478000000fa000621ef0011
:1003e00084c0a9000080fa003400f9000040060033
:1003f0003400f800881f780008002000a801880059
:100400004f0478000000fa000a21ef0084e0a90000
:100410000080fa003400f90000400600809fbe0012
:100420003400f80000002000a00188000000fa005d
:100430001421ef00404080000000e80040408800a8
:100440004140800000d02700808f500001003a001a
:100450000828ef00504080000000e800504088006d
:100460005140800000d02700808f500001003a00ea
:100470000a28ef0086a0a9000080fa003400f900e5
:100480004f00be0000400600801f78003400f800d6
:1004900000002000a00188000000fa001821ef00f1
:1004a000704080000000e8007040880086c0a9000d
:1004b0000080fa003400f9004f0078000040060088
:1004c000801f78003400f80000002000a0018800a0
:1004d0000000fa008520a9009010800000407800fc
:1004e00000e8b7000080fa003400f9004f007800ff
:1004f00000400600801f78003400f8000000200053
:10050000a00188000000fa008700a900e010800028
:100510000040780001e8b7000080fa003400f900dc
:100520004f007800004006000040da000000fe00a6
:100530000a00fa00e20f500034003e0070448000d0
:10054000e10f500003003200e20f500011003a00aa
:100550000c003700c32020000300e00001003a0037
:100560000040da000c02e200020035001422ef0025
:100570000de2a8000f42ab000d003a000f42a800a8
:100580000b003700632120000300e00001003a0067
:100590000040da001602e200020035001e22ef00e1
:1005a00017e2a8001942ab0001003a001942a80066
:1005b000820178000b0037003102fb00e10f500090
:1005c00004003a000f22ab00feff3a0084108800be
:1005d000030037001922ab00feff3a00d410880058
:1005e0008301e9000300e000f3ff3a00e10f50004f
:1005f00003003a000f02ab00feff32000b00370091
:100600001902ab00feff3200080037003300200063
:10061000b3bf9f00c0bf9f00d1bf9f00e2bf9f003c
:100620006a805700e00407006fb997000200780065
:100630000080fa00000006000000050003f0a200a0
:10064000889fbe008a9fbe008c1f7800140107009f
:100650001b0133006450e1004f0032006420e100d0
:100660005200320003826c0007003b000905d000f5
:100670000306d000820f54000c065d000200390012
:100680000200320089017800030678008582550057
:1006900004003d000003fd008103fd008502ea0027
:1006a0008b854200840f720002003b006000100046
:1006b000e08018006011b8000005eb007a28e10026
:1006c0000a00390006007800c75ddd00f707b200b8
:1006d000878075002d003700828171000a01780043
:1006e000610560008180d1000080d3008502e900af
:1006f000f9ff3b00060440008784480002003b00ed
:1007000060041400e0841c000988a3000700320084
:100710008a81710082817100610164008904d100c5
:100720000884d3008b05e800170037000978a30080
:1007300013003a000b00e000130034008b05e900c1
:100740000804440089844c000a4474000978a3001a
:100750000d003a000b00e000070034008b05e900b3
:100760000804440089844c0001003a000b0020007a
:100770000978a300f7ff32000001eb000200370008
:10078000828171000a0178008a0007000cf0a7003e
:1007900001f0a000d30037006420e10002003a001d
:1007a000838f6c00d30033000801be000200be003e
:1007b000cc003700889fbe008a9fbe008c1f780047
:1007c000b7000700be00330003866c006450e100f0
:1007d0002e0032006420e100330032006150e1005d
:1007e0002f0032006120e100310032008585550084
:1007f000eb07b000090020000804200005003700c6
:100800000804440089844c000a00310006034300b8
:1008100087834b000001530081815b00f8ff3300a8
:100820000203be000800a0000804440089844c00b4
:10083000f6ff3900c639dd00830173000100320084
:10084000130020008904d1000884d3000998a30074
:10085000050032000800a7000300a0008904d100b1
:100860000884d3008b05e8008904d1000884d300f4
:100870000001eb000281d2004e00070001f0a10050
:100880000cf0a70001f0a000960037006420e10002
:10089000980032000801be000200be00f7ff3700da
:1008a0006120e100930032006000b800f3ff3700e0
:1008b0000000200001f82700f0ff37000001be0013
:1008c000620007000470a70003f0a1006509b100f1
:1008d000160032000d0035006828e10006003500e2
:1008e000f0ff2f00f1ff27000300e00013003b00a2
:1008f0000100280000000500000040008180480041
:100900008502e900fcff3a0008003700f88f42003a
:1009100002003c008000eb00000005008100d100d7
:100920000080d3008502e800fcff3a000300e000ed
:1009300002003b0060001000e0801800000006008c
:100940000001be00410007000470a70003f0a100f1
:1009500003f8a30013003a006509b100100032004b
:10096000090035006928e100020035000100280077
:100970000000050000004000818048008502e90079
:10098000fcff3a0000000600f88f42000500350029
:100990008100d1000080d3008502e800fcff3a000e
:1009a000000006008000eb00000005006011b800a8
:1009b0008700370081002000618055000b003d005a
:1009c0000b00200061fe2f000100e1001d0034003b
:1009d00082817100610164008904d1000884d30020
:1009e0000000e800faff3a00710020006100640096
:1009f000030070000200600009003200610444003e
:100a0000e0844c000988a500050032008b05e80051
:100a10006808e10002003a008904d1000884d3008c
:100a2000f20f20000258e10005003d00c75ddd0027
:100a3000f907b20089807500080078000000060000
:100a40000bf827008b00780000000500c70ade00c5
:100a5000f107b200f50fb20008003200e1cf42000a
:100a6000020032000170a00024000500810f700018
:100a7000010032000408050044000500810f7000e9
:100a800002003a00140005008502e9000000400061
:100a900081c04800fcff3b000170a000240005005d
:100aa0000004be00e9ff07000003be000405be000d
:100ab0000200be00e5ff0700844f7500000006003d
:100ac0000200be006450e100050036006420e10031
:100ad000020036000968a30001003a000800be00c9
:100ae0000160a0004f0678004f05be004f04be0015
:100af00000000600f0ff2f00f1ff2700f9ff37008c
:100b0000889fbe008a9fbe008c1f7800e4ff07000c
:100b1000ebff330003866c006450e10024003200d8
:100b20006420e100270032006150e1002200320021
:100b30006120e100210032008b854200eb07b1000b
:100b40000134b800003ab8000804420089844a0021
:100b5000013ab8000030b8008880400009014a001e
:100b60000400330000004000818048000201490079
:100b70008b05e900c909dd00830170000100320026
:100b800013002000c814de004814dd004709de0011
:100b90001200b200c808de000884700085ff07005c
:100ba00001f0a1000cf0a70001f0a000cdff37007c
:100bb0006120e100cfff32000801be000200be004c
:100bc000f7ff37006150e100fcff3a00c9ff370032
:100bd000889fbe008a9fbe000082700004027100e0
:100be00004827100260032000004be000200be0034
:100bf0006011b8006b092000950220000182cf002f
:100c00000a0039000541b1000082cf000700390019
:100c10000541b1000982cf00040039000541b1004f
:100c20000882cf00010039000541b10005425200a1
:100c3000120032000a003b008281710061016400f1
:100c40008100d1000080d3008984d3000884d300c0
:100c50008b05e8000442e800f7ff3a000700370080
:100c60000804440089844c0000004800818048004a
:100c70008b05e9000442e900f9ff3a004dff070047
:100c80004f05be004f04be00000006000c00fa0035
:100c9000889fbe0000047800f0ff2700d0bf9f00af
:100ca0008004eb0099bf9f0088bf9f00a8bf9f00f2
:100cb000200c2000b0bf9f0078815700cfb0970074
:100cc00070805700100007000fb89700094878009f
:100cd0008fb89700088050004f04be000080fa00d3
:100ce00000000600d0019000028151004240a9009e
:100cf0000300340010017800014978000208e80080
:100d00000100780000000600f6874700889fbe00bb
:100d10008a9fbe008c9fbe008e1f78000005780061
:100d2000a1b79f00020778008004eb009002370013
:100d3000afb097008100e800a1b79f0051c2b30097
:100d4000814f500003003a00afb097000004eb0061
:100d500011003700ba0090000000fb000168a300fa
:100d60000700320009017800800078000a0078004e
:100d7000dcff07000000e00005003a007c023700bd
:100d80008a00780086020700e10f400078023200f6
:100d90008904e800760237000100780031417800cc
:100da000d3c2b300834f51000c00320007003c0057
:100db000edc15100834f51000a003200ebc14100e8
:100dc000834f51000d003a000800370003c3b30001
:100dd000834f510009003a00060037000830a00098
:100de000edff37000800a000ebff37000810a0005f
:100df000e9ff37000820a000e7ff37000818a3002c
:100e0000010032000800a1000838a30001003200f0
:100e10000820a1008200fb000103b100e98f50000f
:100e20000c003e00000178008000eb006a08b90069
:100e3000b201fb000303b100808041000200780092
:100e40009201fb000303b100e98f5100f7ff360068
:100e5000060037008000eb00a3c2b300834f5100af
:100e600002003a00ce0078000000e8008005eb00a8
:100e7000e2c2b300904f110009003a0008e0a00060
:100e800064415100d04f110003003200000178008e
:100e90000102780006003700ce0578000000e80067
:100ea00000017800090037006a58b90080854100c8
:100eb00002007800b201fb000303b100e98f51008a
:100ec000f9ff360084007800f5ff370032407800e3
:100ed000a2b79f00c3c6b300834f50002500320065
:100ee0000f003c0032c6b300824f50008800320031
:100ef00004003c000004e000220232006b4151007b
:100f00000f00370042c6b300824f50001700320076
:100f100065414100824f500094003a0013003700b1
:100f200032c7b300824f50001b00320007003c0064
:100f300064415100824f5000100032000241e8002d
:100f4000824f500089003a000f00370052c7b300ab
:100f5000824f50008a00320063414100824f5000ae
:100f600082003a00e0df9f0009003700e0df9f00c9
:100f7000850037000840a000d4ff3700e0df9f0065
:100f80000860a00080003700e0df9f000850a0004c
:100f90000870a0007c003700e0df9f004e00780062
:100fa000000678000000e00001003a002c832000d9
:100fb0000c0178000000eb00010037000000e800a1
:100fc000e24178000304e000fcff3a00800678006c
:100fd0000b00e000030032008d8f5500010031004e
:100fe0008b0678008005eb008d8f500001003600e5
:100ff0008d855000680464002a003a001100370013
:101000003a0090000068a300070032000901780050
:10101000010220000a00780032ff07000000e00013
:1010200006003a00060037008a007800000220001f
:10103000db010700e10f4000010032008904e800f5
:101040008b05e9000b00e000edff3a008085eb0026
:10105000140037003a0090000068a3000900320035
:101060000c007800b000fb00000678000901780051
:101070000a0078001bff07000000e00008003a00ab
:10108000080037008c0078003100fb000106780072
:101090008a007800c2010700e10f40000100320021
:1010a0008904e8000d0078008006e9000000e000f7
:1010b000e8ff3a000800e000ad01320011003700ff
:1010c0003a0090000068a300070032000901780090
:1010d000010220000a00780002ff07000000e00083
:1010e00006003a00060037008a007800000220005f
:1010f000ab010700e10f4000010032008904e80065
:101100008b05e9000b00e000edff3a009801370085
:101110004e017800cf91de00c81ade004818dd00cd
:101120004812de0004027000e4df9f000848a300bc
:10113000080032000404e00006003200e14f4200e3
:1011400004003200f4df9f0082e79f002d002000a2
:1011500002003700f2df9f001d002000e2fd2f009b
:101160000f0141000206e80099ff3700e0df9f0011
:10117000ecfd2f000f0646001d00200094ff3700f5
:10118000e0df9f00080cb30008017800020cb200f9
:10119000700064000200e0000d003a000000e00072
:1011a000020032004e06be00020037004e067800f4
:1011b000cfe6de00e00f5600e08f5e000a003d0043
:1011c0003800b30060061600e0861e0006003700f7
:1011d0000000e000020032004e06be0002003700b0
:1011e0004e0678008006eb000b00e00005003a0098
:1011f0008c8576000bf0a7008b05ea008b05e900d3
:10120000cf5dde0088017800030cb200e3b79f00d9
:1012100000042000808f51002300320003003c00b6
:101220000300e000080032002d0037000008200015
:101230006fb29700800f52000d003200000c2000aa
:10124000800f520026003a00a283200010c0b30095
:1012500064014100b20f5600a28f5e001f003900ea
:101260000040e800ea4f5000f9ff3a001b00370049
:1012700010c0b3000201200003002000820f5600be
:10128000838f5e0015003900441add00cc11de00aa
:10129000830172004411dd000040e800e84f500077
:1012a000f6ff3a000d00370010c0b30082002000a6
:1012b00003002000820f5600838f5e000700390074
:1012c000431add00cd11de00830172004311dd0001
:1012d0000040e800eb4f5000f6ff3a00e0df9f00cf
:1012e0006fd997000200fb008b0f500002003d00f9
:1012f000ebdf9f0003003700808f550001003d00a9
:10130000800578000100e000030032006300640003
:10131000010032008100e90008e8a3000500320066
:101320008b8f5000020034008b805000010037008a
:101330008000eb00efd997000300fb000002eb00f8
:10134000d4b79f00808f500002003400008050000e
:10135000d0b79f000828a30040003200610164005c
:101360000818a3000f0032003a0090000068a300a4
:1013700006003200b10220000200e000010032004d
:101380008180e800090178000d003700b0022000dc
:101390000200e000010032000080e8008a007800ce
:1013a0000e0037000200e000100032003a0090000a
:1013b0000068a30007003200090178000102200044
:1013c0000a00780047fe07000000e00006003a002f
:1013d000060037008a00780000022000f0000700b5
:1013e000e10f4000010032008904e8005fb097007f
:1013f0000000e0005a003200bcb79f00cdb79f004c
:10140000800678003a0090000068a30007003200d0
:1014100009017800010320000a00780031fe07006e
:101420000000e00006003a00060037008a0078005d
:1014300000032000da000700e10f40000100320045
:101440008904e8008d06e900eeff3a00ddb79f0051
:101450003fb69700cfb6970041003700dfb1970045
:101460000300e0001a0032000838a30018003a0018
:10147000bcb79f00cdb79f00830678003a0090006c
:101480000068a30007003200090178000102200073
:101490000a00780013fe07000000e00006003a0092
:1014a000060037008a00780000022000bc00070018
:1014b000e10f4000010032008904e8008d06e900d8
:1014c000eeff3a00ddb79f003fb69700cfb697001a
:1014d000610164000818a3000f0032003a00900078
:1014e0000068a30006003200b10220000200e00004
:1014f000010032008180e800090178000d0037000a
:10150000b00220000200e000010032000080e8008c
:101510008a0078000e0037000200e0001000320060
:101520003a0090000068a30007003200090178002b
:10153000010220000a007800eafd07000000e00038
:1015400006003a00060037008a00780000022000fa
:1015500093000700e10f4000010032008904e80019
:101560000b03e9006330b90000017800b2b79f00b7
:101570004233dd00a0832000000343008e01780089
:1015800093b79f0008077800060478005c003700d6
:101590008b05e900000420006fb29700800f520015
:1015a0003800320003003c000400e0000800320074
:1015b0003e00370000082000efb09700808f5000f9
:1015c00020003200000c2000808f500037003a00cd
:1015d0000e48a300100032001802be000401be0035
:1015e0000c00be00f4b79f0085bf9f00f00007000d
:1015f000e0df9f000000fb00cf80de007fb297009d
:101600008fba97000401be00f900070000065600db
:1016100081865e000700370018017800110009007c
:101620000286d800a2002000110009000280d80024
:10163000e1df9f006fd997000243b000e2df9f0017
:101640001a003700108220000e58a300010032005b
:1016500000812000a1832000810054000c01be0005
:101660008100e900030033008301d1000281d3002f
:10167000fbff3700ef006100e0c07800e1df9f0072
:101680000a0037000c00be00bfb197008301e900db
:10169000030033008100d1000080d300fbff37003e
:1016a000674060000043b000e0df9f00ba00900098
:1016b0006fda97000400fb000168a3000700320006
:1016c00009017800800078000a00780085fd070095
:1016d0000000e00005003a00050037008a007800ad
:1016e0002f000700e10f4000010032008904e800ec
:1016f0003fb0970063005000b0b79f0064045400ef
:101700000b00e000a2ff3a000e0478001fb797001c
:101710000838a30016003200dfb097000100e00097
:1017200013003400010478003a0090000068a30020
:101730000700320009017800010220000a00780049
:1017400068fd07000000e00006003a0006003700d0
:101750008a0078000002200011000700e10f40001d
:10176000010032008904e8000804e900eeff3a00b5
:101770002fb1970012407800e0df9f000004e000e6
:101780006bfd3a00090078004f0778004f06be0055
:101790004f05be004f04be006f01b10000000600ff
:1017a000889fbe0001047800b80090008084eb00a0
:1017b0000118a3003a003200180190000198a3001c
:1017c00002003a000200e00035003a000190a0005b
:1017d0003104980080047800f90fb2000200e000a4
:1017e00002003a0028009000000c7800ea8f5400b4
:1017f00005003a000178a30003003a008800780051
:10180000d0002000e6ff070018009000d8009000ec
:10181000810f50000b0032000000e8001004980017
:101820001800780009487800000ce80011c0b300e7
:101830008088200001487800ea8f540018003a00a0
:10184000050037008800780009407800170007007d
:101850008004780012003700380090000088a30050
:101860000f00320018019000a8009000480090007e
:101870002ffb070098009000810f500004003200f9
:10188000380090000003b300300498008084eb001f
:101890000000eb001004980028009000000c780075
:1018a000090078004f04be00000006000200fa00a4
:1018b000889fbe00a0ff9f000104780038009000c0
:1018c0000068a30033003a00e200600005003a001f
:1018d0000003b30030049800110498000080eb006e
:1018e0002e003700d80490000900e00006003a00fe
:1018f00012002000e6805700480090000cfb070013
:101900001904980023003700a80090000100e000af
:1019100008003a00b188200021049800010c7800ea
:101920002100200051049800110498000030a0000c
:101930003004980018019000a80090004800900022
:10194000fbfa0700280090008080eb00110498004b
:10195000aff8970001487800000ce8002ff89700d6
:10196000ea4f50000b003a00380090000088a300b6
:101970000800320018019000a80090004800900074
:10198000ebfa07000000eb0010049800a80090009c
:10199000010c7800aff897000100fb004f04be0077
:1019a0000080fa000000060000c0da000000060017
:1019b0006022b800060220000000d0008180d20022
:1019c0000482d2008582d2000000a00002025200f0
:1019d00083825a00030031000202420083824a00df
:1019e0000000a1000603e900f3ff3a000000060032
:1019f000020ab900001bb9000200b80081004200d1
:081a0000810043000000060014
:020000040000fa
:101a0800737400006172000074200000004c000034
:101a1800455600004f3a0000006d00006d2e000092
:101a280020000000444100004c4a00003a00000039
:101a380062610000636b00002e200000007200004d
:101a480069670000687400002e200000006c000028
:101a580065660000742e000020000000666f00001c
:101a68007277000061720000642e00002000000000
:101a7800736c000069670000687400005269000018
:101a880067680000742e000020000000736c0000de
:101a980069670000687400006c4500004654000047
:101aa8002e20000000000000256400000000000057
:020000040000fa
:101ab8000800fa000228ef000300370010408000f9
:101ac8000000e8001040880011408000f0702200fb
:101ad800808f5000f9ff3600d60007005701070035
:101ae80040d0280047010700e0010700af010700c8
:101af800bc0107000000eb00c80107000000eb0074
:101b0800cc0107007902070083020700b60207002c
:101b1800e4020700070307000c0307000000eb00be
:101b2800200798000000eb0030079800a000200074
:101b3800cd000700d0002000cb00070029030700d4
:101b4800200798005603070030079800b0d02800f7
:101b58002c0107003e009000d700070010d1280094
:101b68002801070060d12800260107002e009000f8
:101b7800d100070010d1280022010700ae00900014
:101b880040062000808f50000b003e00c0d1280086
:101b98001c010700130207000000000011030700e2
:101ba80041062000810f5000fcff36004f0207005d
:101bb80040062000a0020700ae009000a00f200001
:101bc800808f500034003e0030d228000d010700fd
:101bd800e3010700a9020700000000000103070055
:101be800910f2000810f5000fcff3600000000001c
:101bf8002b03070081252000810f500004003600c8
:101c0800a4020700f17c2000810f5000f8ff360085
:101c180036020700840207004006200086020700fb
:101c2800c05d2000890107009a0207000000e0005b
:101c3800160032000080eb00000f78001803070040
:101c480010079800c60107000a003700a00020000e
:101c580085000700d0002000830007001e009000c8
:101c6800950007009e009000010f7800dd02070034
:101c7800100798001e0090009e0f5000f3ff3900d7
:101c88001a020700400620006b020700309c200063
:101c98006e01070063003700ae009000a00f20001f
:101ca800808f500026003600be009000802520005e
:101cb800808f500022003600b0d22800d1000700e3
:101cc800e9010700003220005b0207000702070055
:101cd8004006200058020700800107004038200015
:101ce80055020700010207004006200052020700c3
:101cf800dd0107006102070000000000b9020700cb
:101d0800a10f2000810f500008003600e4020700f0
:101d180081252000810f5000040036005d02070075
:101d280071b52100810f5000f4ff3600ef01070064
:101d38003d020700400620003f0207003900370037
:101d4800ae009000900f2000808f50000c003600ed
:101d5800be00900030062000808f5000080036003a
:101d6800be009000800c2000808f500004003e00d0
:101d780020d32800a3000700bb0107002900370073
:101d8800be00900040062000808f50000f003e00eb
:101d9800c0d328009b00070071010700800c2000b9
:101da80025020700d1010700400620002202070093
:101db800ad010700802520001f020700cb010700a6
:101dc800400620001c02070016003700be009000e5
:101dd800700c2000808f500012003600be0090006a
:101de80080252000808f50000e003e00a0d42800df
:101df8008400070039010700800c20000e0207004c
:101e0800ba010700400620000b02070096010700f0
:101e18008025200008020700b401070040062000c2
:101e28000502070000c8bf000080fb000e00070085
:101e38003eff37000000fa0000042000a0108800d0
:101e48000d42a9008d20a80071108000c0ff2f004e
:101e580000806000701088000de2a8000f42a80002
:101e68000080fa00000006000200fa00000f780067
:101e78000000000071108000001020000080600049
:101e88000000e000fbff3200601080006600600088
:101e9800e60f500003003a009e0078008110880089
:101ea80003003700f00f20001e006000801088003b
:101eb8000080fa00000006000800fa0030079800c9
:101ec800be009000811f780080d52800801f780010
:101ed8000e0078006bfb0700e48757000e007800bf
:101ee800480007000080fa00000006000400fa001d
:101ef800100798001e009000c400de007034200017
:101f08000008b8004308de00004f78001e80fb0080
:101f18000003b000d4ff07009e80fb00008f2d0057
:101f28000088b900000078009e0090000080400002
:101f3800100798001e009000c300de00500c22001d
:101f48000008b8004408de00004f78001e80fb003f
:101f58000003b000c4ff07009e80fb0080c12f0073
:101f68000088b900000078009e00900000804000c2
:101f7800100798001e009000c200de00b047210044
:101f88000008b8000100d100004f78001e80fb0057
:101f98000003b000b4ff07009e80fb00c0f92f00cb
:101fa8000088b900000078009e0090000080400082
:101fb800100798009e009000d0cc2c000008b800b4
:101fc8004308de00004f78001e80fb000003b000cd
:101fd800a5ff07009e80fb0060ff2f000088b90066
:101fe800000078009e0090000080400010079800d4
:101ff8001e0090000003b0009bff07000080fa005d
:10200800000006000000fa00881f7800000478002d
:1020180004003700184078000000fb000804e800be
:1020280091ff0700184078000004e000f9ff3a002b
:102038004f0478000080fa00000006000000fa0053
:1020480070202000f0108800c1108000c0ff2f0011
:1020580000806000c01088008f00a80017e2a80068
:102068001942a8000080fa00000006000200fa00e9
:10207800000f78009e007800d11088000000000052
:10208800c110800000102000008060000000e00007
:10209800fbff32000080fa00000006000400fa008e
:1020a800100798001e009000c300de00500c2200ac
:1020b8000008b8004408de00004f78001e80fb00ce
:1020c8000003b000e9ff07009e80fb0080c12f00dd
:1020d8000088b900000078009e0090000080400051
:1020e800100798001e009000c200de00b0472100d3
:1020f8000008b8000100d100004f78001e80fb00e6
:102108000003b000d9ff07009e80fb00c0f92f0034
:102118000088b900000078009e0090000080400010
:10212800100798009e009000d0cc2c000008b80042
:102138004308de00004f78001e80fb000003b0005b
:10214800caff07009e80fb0060ff2f000088b900cf
:10215800000078009e009000008040001007980062
:102168001e0090000003b000c0ff07000080fa00c6
:10217800000006000200fa00000f78000500370092
:102188001e007800104078000000fb001e0fe800d9
:10219800b6ff07001e007800104078000004e00039
:1021a800f7ff3a000080fa00000006000000fa007d
:1021b800309c20006008880040012000000c880046
:1021c800803e2000100c880060002000200c880051
:1021d80011e1a800104e2000000c88000080fa00d1
:1021e800000006000000fa00309c200070088800fb
:1021f80040012000300c8800803e2000400c880000
:10220800e0002000500c880013e1a800104e2000c8
:10221800300c88000080fa00000006000200fa0076
:10222800000f78001e007800000c88000080fa007b
:10223800000006000200fa00000f78001e00780077
:10224800300c88000080fa00000006000200fa0046
:10225800000f78001e007800f0ff07001e007800cd
:10226800f4ff07000080fa00000006000000fa00f2
:10227800a962a800a982a800d202a900d222a900b6
:10228800c762a900c782a900de02a900de22a90050
:102298000080fa00000006000000fa001017800015
:1022a800610060000000e0000400320010178000a8
:1022b800620060000000e000060032000000eb0051
:1022c800dcff0700e202a800e222a900309c2000ff
:1022d800d8ff07000080fa00000006000000fa009e
:1022e8005116800000802000008060000000e0009f
:1022f8000d003200511680000000210000806000af
:102308000000e00008003a0010178000610060003b
:102318000000e00004003200101780006200600036
:102328000000e0000c0032000000eb00bbff0700db
:10233800cb62a800cb82a900309c2000b7ff070021
:102348000000eb00bbff0700e202a800e222a900a0
:10235800309c2000b7ff07000080fa00000006004c
:102368000000fa0051168000008020000080600004
:102378000000e0000d003a00511680000000210026
:10238800008060000000e0000800320010178000a4
:10239800610060000000e00004003a0010178000af
:1023a800620060000000e0000c003a000000eb0052
:1023b8009aff0700cb62a900cb82a800309c2000be
:1023c80096ff07000000eb009aff0700e202a90051
:1023d800e222a800309c200096ff07000080fa0047
:1023e800000006000000fa0051168000008020005e
:1023f800008060000000e0000d00320051168000ef
:1024080000002100008060000000e00008003a00a1
:1024180010178000610060000000e00004003a002e
:1024280010178000620060000000e0000c003a0015
:102438000000eb0079ff0700cb62a800cb82a9005f
:10244800309c200075ff07000000eb0079ff0700b3
:10245800e202a900e222a800309c200075ff0700d4
:102468000080fa00000006000000fa005116800003
:1024780000802000008060000000e0000d003a00ad
:102488005116800000002100008060000000e0007c
:102498000800320010178000610060000000e000b2
:1024a8000400320010178000620060000000e000a5
:1024b8000c0032000000eb0058ff0700cb62a900b7
:1024c800cb82a800309c200054ff07000000eb00de
:1024d80058ff0700e202a800e222a900309c200071
:1024e80054ff07000080fa00000006000000fa0010
:1024f8000000eb0049ff07000000eb004dff07005c
:10250800cb62a900cb82a900e202a900e222a900bd
:102518000080fa00000006000000fa000021ef0029
:102528000080eb00100888000c28ef0021088000cc
:10253800f0fc2f00008060000050a00020088800f8
:102548000421a9008460a9008c60a80005e1a90005
:102558000080fa00000006000000fa000c28ef00d6
:102568000021ef000080fa00000006000000fa00d9
:1025780005e1a8000080fa00000006000000fa004b
:1025880005e1a9000080fa00000006000200fa0038
:10259800000f78001e0078006a00b900000078007b
:1025a800100888000080fa00000006000000fa0009
:1025b8000080eb00f5ff0700e7ff0700ebff0700cf
:1025c8000080fa00000006000200fa00ebff070096
:1025d80001088000010f7800dfff07001e00780067
:1025e8000080fa00000006000000fa001fe1a900c0
:1025f8001421ef000828ef0000712200d00888009d
:102608001e21a90086a0a9008ea0a8001fe1a9008c
:102618000080fa00000006000000fa001fe1a80090
:102628000080fa00000006000000fa001fe1a9007f
:102638000080fa00000006000200fa00000f78008f
:1026480009000700f4ff07000a28ef000000000057
:10265800504080009e0f5000fdff3900f2ff070038
:102668000080fa00000006000000fa001421ef00c4
:102678000828ef000080fa00000006000000fa00b9
:10268800f9ff07000a28ef00e3ff07000080fa00bf
:10269800000006000000fa00a00880000080fa0090
:1026a800000006000000fa001821ef00a00020003a
:1026b800e00888000c28ef002021a90086c0a900a6
:1026c8008ec0a80021e1a9000080fa0000000600e1
:1026d8000000fa0021e1a8000080fa0000000600ce
:1026e8000000fa0021e1a9000080fa0000000600bd
:1026f8000200fa00000f780009000700f4ff070045
:102708000e28ef0000000000704080009e0f50006f
:10271800fdff3900f2ff07000080fa000000060004
:102728000000fa001821ef000e28ef000080fa00e0
:10273800000006000000fa00cda2a900cdc2a80042
:10274800d1a2a9000080fa00000006000000fa00eb
:10275800d322a900d262a800d722a9000080fa00db
:10276800000006000000fa0040062000b2ff070043
:10277800d1a2a800a0002000ddff0700d1a2a90077
:102788000000000071168000000024000080600036
:102798000000e000fbff320084ff0700000000009b
:1027a8007116800000002400008060000000e00036
:1027b800fbff3a0084ff07006a00b90000007800b8
:1027c8008000eb0077f80700f2282c001311240092
:1027d800f6f7070058f80700000078000080fa00b4
:1027e800000006000400fa000000eb001007980043
:1027f8000000eb00000f780005003700d9ff070044
:102808009e00900000804000100798001e0fe8000e
:102818001e0078000000e000f8ff34001e00900061
:102828000080fa00000006000000fa0040062000c0
:1028380081ff0700d722a800a0002000acff0700f6
:10284800d722a90000000000a016800068006000e0
:102858000000e000fcff320054ff07000000000009
:10286800a0168000680060000000e000fcff3a004d
:1028780055ff07006a00b900000078008000eb00ef
:1028880048f80700f2282c0013112400c7f70700a6
:1028980029f80700000078000080fa000000060010
:1028a8000400fa000000eb00100798000000eb009d
:1028b800000f780005003700dbff07009e0090003e
:1028c80000804000100798001e0fe8001e007800e6
:1028d8000000e000f8ff34001e0090000080fa00bd
:1028e800000006000400fa00000f780011079800a5
:1028f8009e00900020022000808f500003003600c8
:102908001e0090009e0f50000200360010002000ac
:10291800010037000000eb000080fa00000006000c
:102928000000fa00a1a2a90001158000f0cf2f0035
:10293800008060000015880001158000000e20004e
:102948000100700000158800a022a8001115800061
:1029580000002e000100700010158800a342a80096
:102968001115800030fc2f000080600010158800d1
:10297800a222a900a202a9002115800000f02100ce
:102988000100700020158800a4e2a800211580002d
:1029980000fc2f0000806000f001b30020158800c3
:1029a800a782a900a682a9003115800000ff2f0088
:1029b800008060003015880031158000f00f2f006e
:1029c8000080600030158800a822ef000001200078
:1029d80050158800a042a8008560a8008d60a80056
:1029e800c682a800a1e2a8000080fa000000060044
:1029f8000000fa00889fbe008a9fbe003040800019
:102a08008000eb00e7f7070092b3270083ea230072
:102a180039f807000001be00906d2500913d2400a3
:102a280004f707000004be00304080008000eb007f
:102a3800dcf70700c21c2c00738823002ef807005f
:102a48000005be00304080008000eb00d5f707008d
:102a58000001be000a00be0027f807000001be0002
:102a68000800be00f4f6070092f70700000078009f
:102a78004f05be004f04be000080fa0000000600ab
:102a88000400fa000000eb00100798000000eb00bb
:102a9800000f780005003700d5ff07009e00900062
:102aa80000804000100798001e0fe8001e00780004
:102ab8000000e000f8ff34001e0090000080fa00db
:042ac8000000060004
:020000040000fa
:102acc0000080000100000000000000010080000ca
:102adc005200000002000000303132003334350067
:102aec003637380039414200434445004600300037
:102afc0031323300343536003738390061626300c7
:102b0c006465660000286e00756c6c00290000007e
:102b1c0001000000000a000000006400000000003a
:102b2c00e8030000001027000000a0008601000050
:102b3c0040420f000080960098000000e1f505006f
:102b4c0000ca9a003b00000062080000260000004a
:102b5c00020000008908000000890800090000003c
:102b6c00000200008b080000008b08000e02010020
:102b7c00000000000000000000000000060202003f
:102b8c000000000062080000880800000600000039
:102b9c00000000008e08000002000000020000008f
:082bac00010000000000000020
:020000040000fa
:0200000401f009
:040000000587000070
:020000040000fa
:0200000401f009
:040004003f000000b9
:00000001FF
