:020000040000fa
:080000000001040000000000f3
:020000040000fa
:04000800a60200004c
:020000040000fa
:04000c00a602000048
:020000040000fa
:04001000a602000044
:020000040000fa
:04001400a602000040
:020000040000fa
:04001800a60200003c
:020000040000fa
:04001c00a602000038
:020000040000fa
:04002000a602000034
:020000040000fa
:04002400a602000030
:020000040000fa
:04002800a60200002c
:020000040000fa
:04002c00a602000028
:020000040000fa
:04003000a602000024
:020000040000fa
:04003400c8010000ff
:020000040000fa
:04003800a60200001c
:020000040000fa
:04003c00a602000018
:020000040000fa
:04004000e2010000d9
:020000040000fa
:04004400f8010000bf
:020000040000fa
:04004800a60200000c
:020000040000fa
:04004c005a02000054
:020000040000fa
:04005000a602000004
:020000040000fa
:040054008e02000018
:020000040000fa
:04005800a6020000fc
:020000040000fa
:04005c00a6020000f8
:020000040000fa
:04006000a6020000f4
:020000040000fa
:04006400a6020000f0
:020000040000fa
:04006800a6020000ec
:020000040000fa
:04006c00a6020000e8
:020000040000fa
:04007000a6020000e4
:020000040000fa
:04007400a6020000e0
:020000040000fa
:04007800a6020000dc
:020000040000fa
:04007c000e02000070
:020000040000fa
:040080004402000036
:020000040000fa
:04008400a6020000d0
:020000040000fa
:0400880074020000fe
:020000040000fa
:04008c00a6020000c8
:020000040000fa
:04009000a6020000c4
:020000040000fa
:04009400a6020000c0
:020000040000fa
:04009800a6020000bc
:020000040000fa
:04009c00a6020000b8
:020000040000fa
:0400a000a6020000b4
:020000040000fa
:0400a400a6020000b0
:020000040000fa
:0400a800a6020000ac
:020000040000fa
:0400ac00a6020000a8
:020000040000fa
:0400b000a6020000a4
:020000040000fa
:0400b400a6020000a0
:020000040000fa
:0400b800a60200009c
:020000040000fa
:0400bc00a602000098
:020000040000fa
:0400c000a602000094
:020000040000fa
:0400c400a602000090
:020000040000fa
:0400c800a60200008c
:020000040000fa
:0400cc00a602000088
:020000040000fa
:0400d000a602000084
:020000040000fa
:0400d400a602000080
:020000040000fa
:0400d800a60200007c
:020000040000fa
:04010800a60200004b
:020000040000fa
:04010c00a602000047
:020000040000fa
:04011000a602000043
:020000040000fa
:04011400a60200003f
:020000040000fa
:04011800a60200003b
:020000040000fa
:04011c00a602000037
:020000040000fa
:04012000a602000033
:020000040000fa
:04012400a60200002f
:020000040000fa
:04012800a60200002b
:020000040000fa
:04012c00a602000027
:020000040000fa
:04013000a602000023
:020000040000fa
:04013400a60200001f
:020000040000fa
:04013800a60200001b
:020000040000fa
:04013c00a602000017
:020000040000fa
:04014000a602000013
:020000040000fa
:04014400a60200000f
:020000040000fa
:04014800a60200000b
:020000040000fa
:04014c00a602000007
:020000040000fa
:04015000a602000003
:020000040000fa
:04015400a6020000ff
:020000040000fa
:04015800a6020000fb
:020000040000fa
:04015c00a6020000f7
:020000040000fa
:04016000a6020000f3
:020000040000fa
:04016400a6020000ef
:020000040000fa
:04016800a6020000eb
:020000040000fa
:04016c00a6020000e7
:020000040000fa
:04017000a6020000e3
:020000040000fa
:04017400a6020000df
:020000040000fa
:04017800a6020000db
:020000040000fa
:04017c00a6020000d7
:020000040000fa
:04018000a6020000d3
:020000040000fa
:04018400a6020000cf
:020000040000fa
:04018800a6020000cb
:020000040000fa
:04018c00a6020000c7
:020000040000fa
:04019000a6020000c3
:020000040000fa
:04019400a6020000bf
:020000040000fa
:04019800a6020000bb
:020000040000fa
:04019c00a6020000b7
:020000040000fa
:0401a000a6020000b3
:020000040000fa
:0401a400a6020000af
:020000040000fa
:0401a800a6020000ab
:020000040000fa
:0401ac00a6020000a7
:020000040000fa
:0401b000a6020000a3
:020000040000fa
:0401b400a60200009f
:020000040000fa
:0401b800a60200009b
:020000040000fa
:0401bc00a602000097
:020000040000fa
:0401c000a602000093
:020000040000fa
:0401c400a60200008f
:020000040000fa
:0401c800a60200008b
:020000040000fa
:0401cc00a602000087
:020000040000fa
:0401d000a602000083
:020000040000fa
:0401d400a60200007f
:020000040000fa
:0401d800a60200007b
:020000040000fa
:10020000ef8020000eff20000e018800000000009b
:10021000000020000000e000020032000001200089
:100220002002880014000700ca0007000000e00058
:1002300003003a00a0c420000100200002003700a3
:100240000000200001002000810f7000010032003a
:1002500014000700000020000000e000020032004f
:100260000000020000000000d808020000000000aa
:100270000040da000000fe004440a9008003200096
:100280000000e0000300320000002000a001880010
:100290004440a800000006008a1f78008b1f7800e9
:1002a0000000060091018800800478000000eb0047
:1002b0001a003700e284440032a0b4009905ba0065
:1002c000e284440032a0b4009906ba00e2844400fb
:1002d00032a0b4000006eb00476fde00fd07b2005d
:1002e000636ce10003003a00ebff07000000eb0045
:1002f0000a003700606ce10004003a00005deb008a
:100300008b05e900fdff3e00040037006168e10055
:10031000010032000086eb000b00070019c7ba008d
:100320001905ba000e04e00003003a000a00e000dc
:10033000e0ff3a0000000600fe07b2009e018800c0
:100340008a047800f5ff3700395dba008b05e900b3
:100350000c003200295dba008b05e900080032006c
:100360000c00e00003003a00e284440032a0b40034
:10037000f5ff370019ddba008b05e900faff3a00f6
:100380008904e800e184440032a0b40000000600c3
:10039000801f78003400f80000002000a0018800d1
:1003a0000000fa000021ef008460a9001000200086
:1003b000604088000080fa003400f9004f007800a7
:1003c000004006003400f800881f78000800200074
:1003d000a80188004f0478000000fa000621ef0011
:1003e00084c0a9000080fa003400f9000040060033
:1003f0003400f800881f780008002000a801880059
:100400004f0478000000fa000a21ef0084e0a90000
:100410000080fa003400f90000400600809fbe0012
:100420003400f80000002000a00188000000fa005d
:100430001421ef00404080000000e80040408800a8
:100440004140800000d02700808f500001003a001a
:100450000828ef00504080000000e800504088006d
:100460005140800000d02700808f500001003a00ea
:100470000a28ef0086a0a9000080fa003400f900e5
:100480004f00be00004006003400f800881f7800ce
:1004900008002000a80188004f0478000000fa003e
:1004a0001821ef0086c0a9000080fa003400f9008e
:1004b00000400600801f78003400f8000000200093
:1004c000a00188000000fa008520a900901080009b
:1004d0000040780000e8b7000080fa003400f9001e
:1004e0004f00780000400600801f78003400f800bc
:1004f00000002000a00188000000fa008700a90089
:10050000e01080000040780001e8b7000080fa00a9
:100510003400f9004f00780000400600801f78008a
:100520003400f80000002000a00188000000fa005c
:1005300000148000304088008560a9000080fa0027
:100540003400f9004f007800004006000040da0057
:100550000000fe000000050003f0a200889fbe001e
:100560008a9fbe008c1f7800140107001b01330016
:100570006450e1004f0032006420e100520032007c
:1005800003826c0007003b000905d0000306d00081
:10059000820f54000c065d00020039000200320098
:1005a00089017800030678008582550004003d002b
:1005b0000003fd008103fd008502ea008b854200f7
:1005c000840f720002003b0060001000e080180001
:1005d0006011b8000005eb007a28e1000a0039003c
:1005e00006007800c75ddd00f707b2008780750060
:1005f0002d003700828171000a01780061056000da
:100600008180d1000080d3008502e900f9ff3b0022
:10061000060440008784480002003b006004140088
:10062000e0841c000988a300070032008a81710061
:1006300082817100610164008904d1000884d300c3
:100640008b05e800170037000978a30013003a0073
:100650000b00e000130034008b05e900080444009f
:1006600089844c000a4474000978a3000d003a0004
:100670000b00e000070034008b05e900080444008b
:1006800089844c0001003a000b0020000978a30087
:10069000f7ff32000001eb00020037008281710099
:1006a0000a0178008a0007000cf0a70001f0a00002
:1006b000d30037006420e10002003a00838f6c0011
:1006c000d30033000801be000200be00cc0037009a
:1006d000889fbe008a9fbe008c1f7800b70007006d
:1006e000be00330003866c006450e1002e0032002f
:1006f0006420e100330032006150e1002f0032003d
:100700006120e1003100320085855500eb07b00023
:1007100009002000080420000500370008044400f8
:1007200089844c000a0031000603430087834b0094
:100730000001530081815b00f8ff33000203be001b
:100740000800a0000804440089844c00f6ff39002a
:10075000c639dd0083017300010032001300200060
:100760008904d1000884d3000998a3000500320051
:100770000800a7000300a0008904d1000884d3006a
:100780008b05e8008904d1000884d3000001eb0048
:100790000281d2004e00070001f0a1000cf0a7007a
:1007a00001f0a000960037006420e10098003200bc
:1007b0000801be000200be00f7ff37006120e10023
:1007c000930032006000b800f3ff37000000200003
:1007d00001f82700f0ff37000001be0062000700ab
:1007e0000470a70003f0a1006509b10016003200f3
:1007f0000d0035006828e10006003500f0ff2f00ed
:10080000f1ff27000300e00013003b000100280077
:100810000000050000004000818048008502e900da
:10082000fcff3a0008003700f88f420002003c004d
:100830008000eb00000005008100d1000080d300a3
:100840008502e800fcff3a000300e00002003b00e4
:1008500060001000e0801800000006000001be00eb
:10086000410007000470a70003f0a10003f8a300f3
:1008700013003a006509b10010003200090035008c
:100880006928e10002003500010028000000050091
:1008900000004000818048008502e900fcff3a002a
:1008a00000000600f88f4200050035008100d100ed
:1008b0000080d3008502e800fcff3a00000006003b
:1008c0008000eb00000005006011b80087003700d1
:1008d00081002000618055000b003d000b002000ce
:1008e00061fe2f000100e1001d00340082817100d3
:1008f000610164008904d1000884d3000000e8008d
:10090000faff3a00710020006100640003007000eb
:10091000020060000900320061044400e0844c00e1
:100920000988a500050032008b05e8006808e10091
:1009300002003a008904d1000884d300f20f20009d
:100940000258e10005003d00c75ddd00f907b20077
:100950008980750008007800000006000bf8270069
:100960008b00780000000500c70ade00f107b20026
:10097000f50fb20008003200e1cf42000200320061
:100980000170a00024000500810f700001003200fa
:100990000408050044000500810f700002003a00c1
:1009a000140005008502e9000000400081c04800f5
:1009b000fcff3b000170a000240005000004be0005
:1009c000e9ff07000003be000405be000200be00f0
:1009d000e5ff0700844f7500000006000200be001e
:1009e0006450e100050036006420e100020036009a
:1009f0000968a30001003a000800be000160a000e1
:100a00004f0678004f05be004f04be0000000600f0
:100a1000f0ff2f00f1ff2700f9ff3700889fbe008d
:100a20008a9fbe008c1f7800e4ff0700ebff3300b5
:100a300003866c006450e100240032006420e10071
:100a4000270032006150e100220032006120e10005
:100a5000210032008b854200eb07b1000134b80061
:100a6000003ab8000804420089844a00013ab800fc
:100a70000030b8008880400009014a0004003300bb
:100a80000000400081804800020149008b05e90018
:100a9000c909dd008301700001003200130020004d
:100aa000c814de004814dd004709de001200b20061
:100ab000c808de000884700085ff070001f0a1006f
:100ac0000cf0a70001f0a000cdff37006120e1008d
:100ad000cfff32000801be000200be00f7ff370062
:100ae0006150e100fcff3a00c9ff3700889fbe005b
:100af0008a9fbe00008270000402710004827100af
:100b0000260032000004be000200be006011b800e2
:100b10006b092000950220000182cf000a003900f5
:100b20000541b1000082cf00070039000541b10046
:100b30000982cf00040039000541b1000882cf00ce
:100b4000010039000541b100054252001200320097
:100b50000a003b0082817100610164008100d100c4
:100b60000080d3008984d3000884d3008b05e8007b
:100b70000442e800f7ff3a00070037000804440089
:100b800089844c0000004800818048008b05e90002
:100b90000442e900f9ff3a004dff07004f05be008f
:080ba0004f04be000000060036
:020000040000fa
:100ba800737400006172000074200000004c0000a3
:100bb800455600004f3a0000006d00006d2e000001
:100bc80020000000444100004c4a00003a000000a8
:100bd80062610000636b00002e200000006c0000c2
:100be80065660000742e000020000000666f00009b
:100bf8007277000061720000642e0000200000007f
:100c08007269000067680000742e00002000000070
:020000040000fa
:100c18000000fa0000042000a01088000d42a9007e
:100c28008d20a80071108000c0ff2f000080600098
:100c3800701088000de2a8000f42a8000080fa009a
:100c4800000006000200fa00000f78000000000013
:100c58007110800000102000008060000000e0009b
:100c6800fbff32006010800066006000e60f500055
:100c780003003a009e0078008110880003003700c6
:100c8800f00f20001e006000801088000080fa002d
:100c9800000006000400fa00100798001e009000eb
:100ca800c300de00500c22000008b8004408de0033
:100cb800004f78001e80fb000003b000e1ff070032
:100cc8009e80fb0080c12f000088b90000007800da
:100cd8009e00900000804000100798001e009000c1
:100ce800c200de00b04721000008b8000100d100b2
:100cf800004f78001e80fb000003b000d1ff070002
:100d08009e80fb00c0f92f000088b9000000780021
:100d18009e00900000804000100798009e00900000
:100d2800d0cc2c000008b8004308de00004f780043
:100d38001e80fb000003b000c2ff07009e80fb007e
:100d480060ff2f000088b900000078009e00900026
:100d580000804000100798001e0090000003b000bb
:100d6800b8ff07000080fa00000006000000fa0043
:100d7800881f7800000478000400370018407800c5
:100d88000000fb000804e800aeff070018407800e8
:100d98000004e000f9ff3a004f0478000080fa00f0
:100da800000006000000fa0070202000f010880003
:100db800c1108000c0ff2f0000806000c0108800b4
:100dc8008f00a80017e2a8001942a8000080fa00c6
:100dd800000006000200fa00000f78009e0078006c
:100de800d110880000000000c11080000010200011
:100df800008060000000e000fbff32000080fa0085
:100e0800000006000400fa00100798001e00900079
:100e1800c300de00500c22000008b8004408de00c1
:100e2800004f78001e80fb000003b000e9ff0700b8
:100e38009e80fb0080c12f000088b9000000780068
:100e48009e00900000804000100798001e0090004f
:100e5800c200de00b04721000008b8000100d10040
:100e6800004f78001e80fb000003b000d9ff070088
:100e78009e80fb00c0f92f000088b90000007800b0
:100e88009e00900000804000100798009e0090008f
:100e9800d0cc2c000008b8004308de00004f7800d2
:100ea8001e80fb000003b000caff07009e80fb0005
:100eb80060ff2f000088b900000078009e009000b5
:100ec80000804000100798001e0090000003b0004a
:100ed800c0ff07000080fa00000006000200fa00c8
:100ee800000f7800050037001e00780010407800d9
:100ef8000000fb001e0fe800b6ff07001e00780088
:100f0800104078000004e000f7ff3a000080fa0083
:100f1800000006000000fa00309c200060088800ed
:100f280040012000000c8800803e2000100c880042
:100f380060002000200c880011e1a800104e20005d
:100f4800000c88000080fa00000006000000fa008b
:100f5800309c20007008880040012000300c880078
:100f6800803e2000400c8800e0002000500c8800e3
:100f780013e1a800104e2000300c88000080fa0011
:100f8800000006000200fa00000f78001e0078003a
:100f9800000c88000080fa00000006000200fa0039
:100fa800000f78001e007800300c88000080fa00de
:100fb800000006000000fa00a962a800a982a800a3
:100fc800d202a900d222a900c762a900c782a9003b
:100fd800de02a900de22a9000080fa000000060057
:100fe8000000fa0010178000610060000000e000b7
:100ff8000400320010178000620060000000e0006a
:10100800060032000000eb00e4ff0700e202a8003f
:10101800e222a900309c2000e0ff07000080fa00cf
:10102800000006000000fa00511680000080200031
:10103800008060000000e0000500320051168000ca
:1010480000002100008060000000e000060032007f
:101058000000eb00cbff0700cb62a800cb82a90001
:10106800309c2000c7ff07000080fa00000006003f
:101078000000fa0051168000008020000080600007
:101088000000e00005003a00511680000000210031
:10109800008060000000e00006003a000000eb005d
:1010a800b8ff0700cb62a900cb82a800309c2000c3
:1010b800b4ff07000080fa00000006000000fa00f4
:1010c80010178000610060000000e000040032009a
:1010d80010178000620060000000e0000600320087
:1010e8000000eb00adff0700e202a800e222a90021
:1010f800309c2000a9ff07000080fa0000000600cd
:101108000000fa0010178000610060000000e00095
:1011180004003a0010178000620060000000e00040
:1011280006003a000000eb009cff0700e202a9005d
:10113800e222a800309c200098ff07000080fa00f7
:10114800000006000000fa000000eb008dff070019
:10115800cb62a900cb82a9000080fa00000006003b
:101168000000fa000000eb0086ff0700cb62a90030
:10117800cb82a9000080fa00000006000000fa00f7
:101188000000eb007fff07000000eb0083ff070073
:10119800cb62a900cb82a900e202a900e222a90041
:1011a8000080fa00000006000600fa000228ef009e
:1011b80003003700104080000000e800104088005d
:1011c80011408000f0702200808f5000f9ff360037
:1011d8008ffe0700f3fe0700405d2800e3fe0700ce
:1011e800fc00070073ff07004aff070057ff0700ce
:1011f8000000eb0063ff07000000eb0067ff07003b
:10120800deff0700cd0007008a0007004a0107003b
:101218004f0107000000eb00000f78000000eb0012
:10122800100798000000eb0020079800a00020009d
:1012380084fe0700d000200082fe07000000eb00bb
:10124800000f78000000eb00100798000000eb008a
:10125800200798000d003700430107006a00b90015
:10126800000078001e0f40005d0107006a00b90009
:10127800000078009e009000008040001007980051
:101288002e0090000000e800200798002e00900033
:101298000000e000f0ff3400b05d2800b3fe070056
:1012a8001e0090007bfe0700105e2800affe0700be
:1012b800605e2800adfe07001e00780075fe07007e
:1012c800105e2800a9fe0700803e2000af0007003e
:1012d800600920009e007800808f500013003e00b7
:1012e800c05e2800a1fe070061ff070073ff07002a
:1012f80080252000a500070092ff070080ff070057
:1013080040062000a100070046ff07007cff0700f9
:10131800802520009d0007008aff070067ff07005f
:1013280040062000990007003b0037000019200004
:101338009e007800808f50000f0036009e009000bd
:10134800c0122000808f50000b003600305f28004c
:1013580086fe070046ff070069ff07000019200006
:101368008a00070077ff070054ff070040062000a7
:101378008600070028003700001920009e0078002a
:10138800808f5000120036009e00900060092000f7
:10139800808f50000e0036009e009000c012200082
:1013a800808f50000a003e00a05f28006ffe0700f3
:1013b80064ff070052ff07000019200073000700b0
:1013c8003eff0700400620007000070012003700ab
:1013d800f01820009e007800808f5000040036002e
:1013e8009e00900060092000808f50000a003e0097
:1013f800406028005dfe070041ff070009ff070065
:1014080000192000610007004eff07002bff0700ae
:10141800400620005d00070058ff070000c8bf0015
:101428000080fb0007fe0700c012200057000700dd
:101438007eff37000000fa000021ef004006200080
:10144800100888000c28ef0021088000f0fc2f000d
:10145800008060000050a000200888000421a90036
:101468008460a9008c60a80005e1a9000080fa004a
:10147800000006000200fa00000f78001e00780045
:1014880016000700080007000c0007000000000015
:10149800604080000000e000fdff32000b00070004
:1014a8000080fa00000006000000fa000c28ef0097
:1014b8000021ef000080fa00000006000000fa009a
:1014c80005e1a8000080fa00000006000000fa000c
:1014d80005e1a9000080fa00000006000200fa00f9
:1014e800000f78009e007800400620000088b900b0
:1014f80000007800100888000080fa00000006004c
:101508000000fa000080eb00f4ff0700e6ff070088
:10151800eaff07000080fa00000006000200fa0057
:10152800eaff070001088000010f7800deff0700ce
:101538001e0078000080fa00000006000000fa0093
:101548001fe1a9001421ef000828ef000071220014
:10155800d00888001e21a90086a0a9008ea0a80096
:101568001fe1a9000080fa00000006000000fa0050
:101578001fe1a8000080fa00000006000000fa0041
:101588001fe1a9000080fa00000006000200fa002e
:10159800000f78000a000700f4ff07000a28ef0090
:1015a800000000009e00780050408000808f5000ae
:1015b800fcff3e00f1ff07000080fa000000060073
:1015c8000000fa001421ef000828ef000080fa005c
:1015d800000006000000fa00a1a2a9000115800081
:1015e800f0cf2f00008060000015880001158000f2
:1015f800000e20000100700000158800a022a8003d
:101608001115800000002e000100700010158800e0
:10161800a342a8001115800030fc2f000080600054
:1016280010158800a222a900a202a9002115800095
:1016380000f021000100700020158800a4e2a80035
:101648002115800000fc2f0000806000f001b3002d
:1016580020158800a782a900a682a900311580005c
:1016680000ff2f00008060003015880031158000d1
:10167800f00f2f000080600030158800a822ef00ce
:101688000001200050158800a042a8008560a8002d
:101698008d60a800c682a800a1e2a8000080fa0018
:1016a800000006000000fa00889fbe008a9fbe0066
:1016b800a1e2a800304080008000eb0080fc070019
:1016c80092b3270083ea2300d2fc07000001be0082
:1016d800906d2500913d24009dfb07000004be008d
:1016e800304080008000eb0075fc0700c21c2c0015
:1016f80073882300c7fc07000005be003040800047
:101708008000eb006efc07000001be000a00be006e
:10171800c0fc07000001be000800be008dfb0700ea
:101728002bfc0700000078004f05be004f04be00e8
:101738000080fa00000006000000fa00cda2a9000f
:10174800cdc2a800d1a2a9000080fa0000000600be
:101758000000fa00d322a900d262a800d722a9006b
:101768000080fa00000006000000fa004006200091
:1017780086ff0700d1a2a800400120003dff070016
:10178800d1a2a9000000000071168000000024000a
:10179800008060000000e000fbff320058ff0700f7
:1017a8000000000071168000000024000080600026
:1017b8000000e000fbff3a0058ff07008000eb0044
:1017c8003ffc0700f2282c0013112400befb070081
:1017d80020fc0700000078000080fa0000000600e6
:1017e8000000fa004006200068ff0700d722a80082
:1017f800400120001fff0700d722a90000000000b9
:10180800a0168000680060000000e000fcff3200c5
:101818003bff070000000000a01680006800600081
:101828000000e000fcff3a003cff07008000eb00ee
:1018380023fc0700f2282c0013112400a2fb070048
:1018480004fc0700000078000080fa000000060091
:101858000400fa00000f7800110798009e0090001d
:1018680020022000808f5000030036001e009000e8
:101878009e0f5000020036001000200001003700c3
:0c1888000000eb000080fa0000000600e9
:020000040000fa
:10189400000800000e00000000000000000000002e
:020000040000fa
:0200000401f009
:040000000587000070
:020000040000fa
:0200000401f009
:040004003f000000b9
:00000001FF
